:100000000C945D000C9485000C9485000C94850084
:100010000C9485000C9485000C9485000C9485004C
:100020000C9485000C9485000C9485000C9485003C
:100030000C9485000C9485000C9485000C9485002C
:100040000C944E050C9485000C941C050C94F6043D
:100050000C9485000C9485000C9485000C9485000C
:100060000C9485000C94850000000008000201003B
:100070000003040700000000000000000000000072
:10008000250028002B0000000000240027002A0083
:10009000040404040404040402020202020203032E
:1000A0000303030301020408102040800102040836
:1000B0001020010204081020980511241FBECFEF64
:1000C000D8E0DEBFCDBF11E0A0E0B1E0E0E2FFE0AC
:1000D00002C005900D92A037B107D9F725E0A0E73F
:1000E000B1E001C01D92A036B207E1F710E0CDE506
:1000F000D0E004C02197FE010E944307CC35D10710
:10010000C9F70E94E3050C948E070C94000090E060
:10011000FC01EC55FF4F2491FC01E057FF4F849107
:10012000882399F090E0880F991FFC01EA57FF4F50
:10013000A591B491FC01E458FF4F859194918FB73C
:10014000F894EC91E22BEC938FBF0895CF92DF925D
:10015000EF92FF920F931F93CF93DF936C017A017D
:100160008B01C0E0D0E0CE15DF0589F0D8016D919C
:100170008D01D601ED91FC910190F081E02DC60139
:100180000995892B11F47E0102C02196ECCFC7019D
:10019000DF91CF911F910F91FF90EF90DF90CF9063
:1001A0000895FC01918D828D981761F0828DDF0199
:1001B000A80FB11D5D968C91928D9F5F9F73928F5A
:1001C00090E008958FEF9FEF0895FC01918D828D4F
:1001D000981731F0828DE80FF11D858D90E008951C
:1001E0008FEF9FEF0895FC01918D228D892F90E074
:1001F000805C9F4F821B91098F73992708958BEA2A
:1002000094E00E94F30021E0892B09F420E0822F82
:100210000895FC01848DDF01A80FB11DA35ABF4FC3
:100220002C91848D90E001968F739927848FA689F5
:10023000B7892C93A089B1898C9180648C93938D1C
:10024000848D981306C00288F389E02D80818F7D0C
:1002500080830895EF92FF920F931F93CF93DF93C4
:10026000EC0181E0888F9B8D8C8D981305C0E88907
:10027000F989808185FD24C0F62E0B8D10E00F5F7B
:100280001F4F0F731127E02E8C8DE8120CC00FB694
:1002900007FCFACFE889F989808185FFF5CFCE0187
:1002A0000E940901F1CF8B8DFE01E80FF11DE35A89
:1002B000FF4FF0820B8FEA89FB898081806207C043
:1002C000EE89FF896083E889F98980818064808371
:1002D00081E090E0DF91CF911F910F91FF90EF901F
:1002E0000895CF93DF93EC01888D8823C9F0EA89C4
:1002F000FB89808185FD05C0A889B9898C9186FD1F
:100300000FC00FB607FCF5CF808185FFF2CFA8891B
:10031000B9898C9185FFEDCFCE010E940901E7CF0D
:10032000DF91CF91089580E090E0892B29F00E9421
:10033000FF0081110C940000089590E0FC01E85941
:10034000FF4F3491FC01EC55FF4F2491FC01E05725
:10035000FF4FE491EE2309F43BC0332339F13330EE
:1003600091F038F43130A9F0323001F584B58F7D49
:1003700012C0373091F03830A1F03430B9F48091A8
:1003800080008F7D03C0809180008F7780938000F4
:100390000DC084B58F7784BD09C08091B0008F7780
:1003A00003C08091B0008F7D8093B000F0E0EE0F2D
:1003B000FF1FE458FF4FA591B4918FB7F894EC91CB
:1003C000611103C020952E2301C02E2B2C938FBFCB
:1003D00008953FB7F8948091990490919A04A09160
:1003E0009B04B0919C0426B5A89B05C02F3F19F033
:1003F0000196A11DB11D3FBFBA2FA92F982F8827A5
:10040000820F911DA11DB11DBC01CD0142E0660FFF
:10041000771F881F991F4A95D1F70895CF93DF93CF
:10042000EC0160E08E810E949D0161E08E810E945E
:100430009D0160E08E810E949D018BE891E0019713
:10044000F1F7DF91CF910895CF92DF92EF92FF9273
:100450000F931F93CF93DF937C016C0187E0C80E4D
:10046000D11CC0E0D0E0062F10E0B8010C2E02C075
:10047000759567950A94E2F76170F60181916F01B5
:100480000E949D012196C430D10579F7C701DF9103
:10049000CF911F910F91FF90EF90DF90CF900C9430
:1004A0000E02CF92DF92EF92FF920F931F93CF93A2
:1004B000DF93EC01F62E642F8C810E949D018D81CB
:1004C0008F3F19F060E00E949D018F850F2D10E095
:1004D00084FF25C06E0187E0C80ED11CE12CF12CF1
:1004E000B8010E2C02C0759567950A94E2F7617009
:1004F000F60181916F010E949D01FFEFEF1AFF0A43
:1005000088E0E816F10461F7CE01DF91CF911F91E9
:100510000F91FF90EF90DF90CF900C940E02B801F6
:1005200084E0759567958A95E1F7CE010E942402D3
:100530006F2DCE01DF91CF911F910F91FF90EF9022
:10054000DF90CF900C94240241E00E94510281E0A0
:1005500090E0089540E00C945102EF92FF920F93C7
:100560001F93CF93DF93EC01623018F08F85886082
:100570008F876B8B1C8A80E48D8B80E18E8B80E56E
:100580008F8B8C810E9487008D818F3F11F00E949C
:1005900087008E810E9487007E0187E0E80EF11CB3
:1005A00000E010E08F8584FD03C084E090E002C08D
:1005B00088E090E00817190744F4F70181917F0162
:1005C0000E9487000F5F1F4FEDCF8BE39DE00197E7
:1005D000F1F760E08C810E949D0160E08E810E94B5
:1005E0009D018D818F3F19F060E00E949D016F8514
:1005F00064FD1DC063E0CE010E9424020BE416E4FA
:10060000C8010197F1F763E0CE010E942402C801FE
:100610000197F1F763E0CE010E94240283E592E0A6
:100620000197F1F762E0CE010E94240216C06062D9
:10063000CE010E94AA028BE496E40197F1F76F8540
:100640006062CE010E94AA0283E592E00197F1F771
:100650006F856062CE010E94AA026F856062CE0142
:100660000E94AA0284E0888B6CE0CE010E94AA025C
:1006700061E0CE010E94AA028BE39FE10197F1F7AE
:1006800082E0898B66E0CE01DF91CF911F910F91BF
:10069000FF90EF900C94AA02843008F083E09091D0
:1006A0005B05891710F08FEF890FE82FF0E0E85B0A
:1006B000FA4F6489606888E495E00C94AA02009778
:1006C00069F0FC0101900020E9F73197AF01481B68
:1006D000590BBC0188E495E00C94A60080E090E002
:1006E0000895EF92FF920F931F93CF93DF93109291
:1006F0000003109238028DE9E82E84E0F82EF7010D
:100700001182108201EA14E0F80111821082C5EA18
:10071000D4E0188280E00E944C0380E091E00E94C7
:100720005F03F70113821282F80113821282198289
:1007300081E00E944C0380E091E0DF91CF911F9116
:100740000F91FF90EF900C945F030F931F93CF9343
:10075000DF93EC010AE010E0C8010E94780789935A
:100760000F5F1F4F9FEF980F9E3FB0F31882DF91EE
:10077000CF911F910F9108950E944907CF92DF9268
:10078000EF92FF920F931F93CF93DF93CDB7DEB716
:1007900064970FB6F894DEBF0FBECDBF98E3E92E85
:1007A00092E0F92E8BEA94E00E94D1008F3F09F489
:1007B000D2C020919204309193048A3019F08D3088
:1007C00021F0B9C02115310569F3F901E653FC4F59
:1007D00010821092930410929204EAECF3E091914B
:1007E000992301F18EE3890F8230C8F78081282F89
:1007F0002F7330E4939FC0011124822B8083AF01BB
:10080000CA018A5C9340DA012D91AD01222329F0BF
:10081000CA010297DC012C93F3CFDC01A753BC4F34
:100820001C92DDCF67E471E08AEC93E00E945E07E2
:100830009093C9038093C803892B49F00E94E10477
:100840006091C8037091C903695F7F4F36C06FE440
:1008500071E08AEC93E00E945E079093C903809355
:10086000C803892BD1F00E947103E091C803F09175
:10087000C9038781811103C060E771E003C0BF0134
:10088000695F7F4F88E392E00E945707F0929E04D1
:10089000E0929D040E94BA0485CF67E571E08AEC7E
:1008A00093E00E945E079093C9038093C803892B4D
:1008B00079F00E94E10467E571E080E093E00E9436
:1008C000570780E093E09093A00480939F04E2CFC9
:1008D0006FE571E08AEC93E00E945E078C019093D3
:1008E000C9038093C803892B09F45CCFCE0101961C
:1008F0000E94A503045F1F4FB801CE0101960E941C
:100900004E07892B09F44ECF8AE0C82ED12CBFEFB9
:10091000CB1ADB0AF8016081C60101970E948007AB
:10092000D8018D918D0181508E3F88F360E0C60122
:100930000E94800737CF283C310508F033CFA9014A
:100940004F5F5F4F5093930440939204F901E65335
:10095000FC4F808327CF64960FB6F894DEBF0FBE9E
:10096000CDBFDF91CF911F910F91FF90EF90DF905E
:10097000CF9008950E94BE0380E00E944C038091B6
:100980009D0490919E04009741F02091A104309124
:10099000A204820F931F0E945F030E94BE0381E0A6
:1009A0000E944C0380919F049091A004009741F015
:1009B0002091A3043091A404820F931F0C945F0331
:1009C0000895109200031092A00410929F041092B8
:1009D000A4041092A3041092A60481E00E944C0388
:1009E00080E091E00E945F030C94BA041F920F9282
:1009F0000FB60F9211242F933F934F935F936F93F2
:100A00007F938F939F93AF93BF93EF93FF938BEA63
:100A100094E00E940901FF91EF91BF91AF919F91E6
:100A20008F917F916F915F914F913F912F910F9097
:100A30000FBE0F901F9018951F920F920FB60F9236
:100A400011242F938F939F93EF93FF93E091BB0417
:100A5000F091BC048081E091C104F091C20482FD58
:100A600012C090818091C4048F5F8F732091C50460
:100A7000821751F0E091C404F0E0E555FB4F958FEB
:100A80008093C40401C08081FF91EF919F918F9169
:100A90002F910F900FBE0F901F9018951F920F92DD
:100AA0000FB60F9211242F933F938F939F93AF9381
:100AB000BF938091950490919604A0919704B09172
:100AC00098043091940423E0230F2D3720F40196ED
:100AD000A11DB11D05C026E8230F0296A11DB11D61
:100AE000209394048093950490939604A093970484
:100AF000B09398048091990490919A04A0919B04DA
:100B0000B0919C040196A11DB11D8093990490930E
:100B10009A04A0939B04B0939C04BF91AF919F91C2
:100B20008F913F912F910F900FBE0F901F901895AE
:100B3000EBEAF4E01382128288EE93E0A0E0B0E0EA
:100B400084839583A683B78383E391E09183808335
:100B500085EC90E09587848784EC90E09787868782
:100B600080EC90E0918B808B81EC90E0938B828B7A
:100B700082EC90E0958B848B86EC90E0978B868B53
:100B8000118E128E138E148EE8E4F5E01382128219
:100B900083E491E0918380838CE084838FEF85836D
:100BA0008BE0868385E0878384E0808783E081878C
:100BB00082E082871386148615861686178661E082
:100BC000CF010C94AD02CF93DF93CDB7DEB764971E
:100BD0000FB6F894DEBF0FBECDBF789484B58260A7
:100BE00084BD84B5816084BD85B5826085BD85B5D1
:100BF000816085BD80916E00816080936E0010924F
:100C000081008091810082608093810080918100C9
:100C1000816080938100809180008160809380005A
:100C20008091B10084608093B1008091B0008160B8
:100C30008093B00080917A00846080937A008091E4
:100C40007A00826080937A0080917A00816080933C
:100C50007A0080917A00806880937A001092C100B7
:100C6000E091BB04F091BC0482E08083E091B70482
:100C7000F091B8041082E091B904F091BA0484E4D0
:100C800080831092C304E091BF04F091C00486E019
:100C90008083E091BD04F091BE04808180618083F7
:100CA000E091BD04F091BE04808188608083E09172
:100CB000BD04F091BE04808180688083E091BD0412
:100CC000F091BE0480818F7D808362E088E495E0AE
:100CD0000E94AD028DE00E94870061E088E495E00B
:100CE0000E94AA028BE39FE10197F1F760915905F9
:100CF0006E7F60935905646088E495E00E94AA02C3
:100D00008DE191E00E945F0381E00E944C0381E14C
:100D100091E00E945F030E94E9014B015C0128EB16
:100D2000C22E2BE0D22EE12CF12C0E94E901DC0135
:100D3000CB0188199909AA09BB09883E9340A105EE
:100D4000B10558F021E0C21AD108E108F10888EE97
:100D5000880E83E0981EA11CB11CC114D104E104CB
:100D6000F10419F70E9471038E010F5F1F4FC80134
:100D70000E94A5038CE691E090939E0480939D04CD
:100D80001093A00400939F040E94BA0406E010E0B0
:100D900096E0F92E0E94BE038091A9049091AA04C6
:100DA0008F3FAFEF9A0731F001969093AA0480939A
:100DB000A90452C01092AA041092A9048091A70419
:100DC0009091A80401969093A8048093A704B80179
:100DD0000E942F07892B21F461E08DE00E949D0184
:100DE000E5EAF4E081EAC82E84E0D82E4DE954E02B
:100DF0008081882341F0843019F4D6011D921C9221
:100E00008150808319C0D6012D913C91DA016D91FA
:100E10007C91620F731FDB010D900020E9F7CD017B
:100E20000197861B970B419730F02F5F3F4FD601FC
:100E30002D933C9301C0F0823196B2E0CB0ED11CD1
:100E40004E5F5F4F24E0E73AF20791F60E94BA0442
:100E500060E08DE00E949D010E9493019BCFAA1B40
:100E6000BB1B51E107C0AA1FBB1FA617B70710F095
:100E7000A61BB70B881F991F5A95A9F780959095C7
:100E8000BC01CD010895EE0FFF1F0590F491E02DF8
:100E9000099481E090E0F8940C948E07FB01DC014A
:100EA0008D91019080190110D9F3990B0895FB01E0
:100EB000DC0101900D920020E1F70895FB015191B2
:100EC0005523A9F0BF01DC014D9145174111E1F710
:100ED00059F4CD010190002049F04D914015411188
:100EE000C9F3FB014111EFCF81E090E00197089534
:100EF000F999FECF92BD81BDF89A992780B50895E2
:100F0000262FF999FECF1FBA92BD81BD20BD0FB625
:100F1000F894FA9AF99A0FBE01960895F894FFCFC3
:100F200020202020202020202020202020202020C1
:100F300000286329204B61726157696E004B617212
:100F40006164696F206C63640000006005800000CC
:100F50000000002A01A600F300D100E500710100A5
:100F6000000000A402A6004D455441233A20004948
:100F7000435930233A200053544F505045440053B6
:100F8000746174696F6E2049703A200049503A00CC
:107800000C94343C0C94513C0C94513C0C94513CE1
:107810000C94513C0C94513C0C94513C0C94513CB4
:107820000C94513C0C94513C0C94513C0C94513CA4
:107830000C94513C0C94513C0C94513C0C94513C94
:107840000C94513C0C94513C0C94513C0C94513C84
:107850000C94513C0C94513C0C94513C0C94513C74
:107860000C94513C0C94513C11241FBECFEFD8E036
:10787000DEBFCDBF11E0A0E0B1E0ECE9FFE702C060
:1078800005900D92A230B107D9F712E0A2E0B1E065
:1078900001C01D92AD30B107E1F70E942D3D0C945F
:1078A000CC3F0C94003C982F959595959595959582
:1078B000905D8F708A307CF0282F295A8091C0000B
:1078C00085FFFCCF9093C6008091C00085FFFCCF60
:1078D0002093C6000895282F205DF0CF982F809127
:1078E000C00085FFFCCF9093C6000895EF92FF92F1
:1078F0000F931F93EE24FF2487018091C00087FD22
:1079000017C00894E11CF11C011D111D81E4E8164B
:1079100082E4F8068FE0080780E0180770F3E09132
:107920000401F091050109958091C00087FFE9CF1E
:107930008091C6001F910F91FF90EF9008950E94D3
:10794000763C982F8091C00085FFFCCF9093C600B5
:1079500091362CF490330CF09053892F089597555D
:10796000892F08951F930E949F3C182F0E949F3CCF
:107970001295107F810F1F9108951F93182F882350
:1079800021F00E94763C1150E1F71F9108951F935A
:10799000182F0E94763C803249F0809103018F5F5E
:1079A000809303018530C1F01F9108958091C0003C
:1079B00085FFFCCF84E18093C6008091C00085FFE5
:1079C000FCCF1093C6008091C00085FFFCCF80E102
:1079D0008093C6001F910895E0910401F091050184
:1079E00009951F9108950E94763C803241F0809164
:1079F00003018F5F80930301853081F008958091AA
:107A0000C00085FFFCCF84E18093C6008091C00058
:107A100085FFFCCF80E18093C6000895E0910401CA
:107A2000F09105010995089540E951E08823A1F0FE
:107A30002D9A28EE33E0FA013197F1F721503040CA
:107A4000D1F72D9828EE33E0FA013197F1F7215064
:107A50003040D1F7815061F708953F924F925F9285
:107A60006F927F928F929F92AF92BF92CF92DF924E
:107A7000EF92FF920F931F93CF93DF93000080E16B
:107A80008093C4001092C50088E18093C10086E015
:107A90008093C2005098589A259A81E00E94143D24
:107AA00024E1F22E9EE1E92E85E9D82E0FE0C02ECA
:107AB00010E1B12EAA24A394B1E49B2EA6E58A2E50
:107AC000F2E57F2EE0E26E2E79E4572E63E5462E36
:107AD00050E5352E0E94763C8033B1F18133B9F107
:107AE000803409F46FC0813409F476C0823409F41B
:107AF00085C0853409F488C0803531F1823521F1A3
:107B0000813511F1853509F485C0863509F48DC0BC
:107B1000843609F496C0843709F403C1853709F423
:107B200072C1863709F466C0809103018F5F80932C
:107B30000301853079F6E0910401F0910501099582
:107B40000E94763C803351F60E94F33CC3CF0E94E2
:107B5000763C803249F78091C00085FFFCCFF092DF
:107B6000C6008091C00085FFFCCF9092C600809136
:107B7000C00085FFFCCF8092C6008091C00085FFC9
:107B8000FCCF7092C6008091C00085FFFCCF609250
:107B9000C6008091C00085FFFCCF5092C600809146
:107BA000C00085FFFCCF4092C6008091C00085FFD9
:107BB000FCCF3092C6008091C00085FFFCCFB09210
:107BC000C60088CF0E94763C863808F4BDCF0E945C
:107BD000763C0E94F33C7ECF0E94763C803809F4CC
:107BE0009CC0813809F40BC1823809F43CC1883942
:107BF00009F48FC080E00E94C73C6CCF84E10E94F2
:107C0000BD3C0E94F33C66CF85E00E94BD3C0E94D3
:107C1000F33C60CF0E94763C809306010E94763C44
:107C2000809307010E94F33C55CF0E94763C80333D
:107C300009F41DC183E00E94BD3C80E00E94C73C66
:107C400049CF0E94763C809309020E94763C809343
:107C5000080280910C028E7F80930C020E94763C79
:107C6000853409F415C18091080290910902892B8D
:107C700089F000E010E00E94763CF801E85FFE4FDA
:107C800080830F5F1F4F80910802909109020817AF
:107C9000190788F30E94763C803209F045CF809125
:107CA0000C0280FF01C16091060170910701660F0F
:107CB000771F7093070160930601A0910802B091AD
:107CC00009021097C9F0E8E0F1E09B01AD014E0F09
:107CD0005F1FF999FECF32BD21BD819180BDFA9A17
:107CE000F99A2F5F3F4FE417F50799F76A0F7B1F4B
:107CF00070930701609306018091C00085FFFCCF5F
:107D0000F092C6008091C00085FFFCCFB092C60003
:107D1000E1CE83E00E94C73CDDCE82E00E94C73CFA
:107D2000D9CE0E94763C809309020E94763C8093D3
:107D300008028091060190910701880F991F909386
:107D40000701809306010E94763C853409F4A6C0A1
:107D500080910C028E7F80930C020E94763C8032D0
:107D600009F0B8CE8091C00085FFFCCFF092C6002C
:107D7000609108027091090261157105B9F140E046
:107D800050E080910C02A82FA170B82FB27011C0E2
:107D9000BB2309F45CC0E0910601F0910701319624
:107DA000F0930701E09306014F5F5F4F46175707B7
:107DB000E8F4AA2369F3F999FECF209106013091E6
:107DC000070132BD21BDF89A90B58091C00085FFB2
:107DD000FCCF9093C6002F5F3F4F30930701209355
:107DE00006014F5F5F4F4617570718F38091C00099
:107DF00085FDE5CE8091C00085FFF8CFE0CE81E023
:107E00000E94C73C67CE0E94763C803209F08CCE3F
:107E10008091C00085FFFCCFF092C6008091C00029
:107E200085FFFCCFE092C6008091C00085FFFCCFAB
:107E3000D092C6008091C00085FFFCCFC092C600E2
:107E40008091C00085FFFCCFB092C60043CEE09188
:107E50000601F091070194918091C00085FFFCCF4D
:107E60009093C6009CCF80E10E94C73C33CE0E9415
:107E7000763C0E94763C182F0E94763C112309F430
:107E800083C0113009F484C08FE00E94C73C22CE29
:107E900080910C02816080930C02E5CE80910C02EF
:107EA000816080930C0259CF809107018823880F4D
:107EB000880B8A2180930B02809106019091070123
:107EC000880F991F90930701809306018091080203
:107ED00080FF09C080910802909109020196909359
:107EE000090280930802F894F999FECF1127E091D6
:107EF0000601F0910701C8E0D1E08091080290915D
:107F00000902103091F40091570001700130D9F34B
:107F100003E000935700E89500915700017001308D
:107F2000D9F301E100935700E89509901990009169
:107F3000570001700130D9F301E000935700E89534
:107F40001395103498F011270091570001700130FB
:107F5000D9F305E000935700E895009157000170B0
:107F60000130D9F301E100935700E895329602976A
:107F700009F0C7CF103011F00296E5CF112480919F
:107F8000C00085FFB9CEBCCE8EE10E94C73CA2CD19
:0C7F900085E90E94C73C9ECDF894FFCF0D
:027F9C00800063
:040000030000780081
:00000001FF
