:100000000C9460080C9488080C9488080C94880858
:100010000C9488080C9488080C9488080C94880820
:100020000C9488080C9488080C9488080C94880810
:100030000C9488080C9488080C9488080C94880800
:100040000C94AC130C9488080C944A130C9424134D
:100050000C9488080C9488080C9488080C948808E0
:100060000C9488080C948808FFE0FFD1AFFF32FFA2
:10007000D0FFFEFFE0FFD1AEFFD0FFFEFFE0FFD1DB
:100080001000FFFEFFD0FFE0FFC1FFD1AED580A87A
:100090003FD300408D142000A1C8DA1281CFD9F1DE
:1000A000DB402EA4A6AFFFD0FFFE0000000024001E
:1000B00027002A0000000000250028002B00000077
:1000C000000023002600290004040404040404049E
:1000D00002020202020203030303030301020408F3
:1000E00010204080010204081020010204081020A2
:1000F00000000008000201000003040700000000E7
:100100000000000001060D00FE09016602D620FF76
:10011000FE0BFE0AFE0D006022196980808080803F
:1001200080800080183363A0A0A00357675050F868
:1001300050F850500259692078A0A0702828F0206B
:1001400002596948A85010204050A89002586840B1
:10015000A0A040A0989068281363808080113B6B1A
:100160002040408080808080404020113B6B804058
:1001700040202020202040408006556520A870A8FF
:10018000200455652020F82020113363604080064C
:100190005161F811336340E04002596908081010BA
:1001A0002040408080025969205088888888885083
:1001B000200259692060A02020202020F8025969DF
:1001C0007088880810204080F8025969F8081020CB
:1001D0007008088870025969101030505090F8105B
:1001E00010025969F88080B0C808088870025969FF
:1001F00070888080F088888870025969F80810102B
:10020000202040404002596970888888708888881A
:100210007002596970888888780808887011386871
:1002200040E040000040E04011386840E0400000FD
:100230006040800259690810204080402010080466
:100240005464F80000F8025969804020100810201A
:1002500040800259697088880810202000200259C7
:100260006970888898A8A8B0807802596920508859
:100270008888F8888888025969F048484870484852
:1002800048F00259697088808080808088700259A7
:1002900069F048484848484848F0025969F8808061
:1002A00080F0808080F8025969F8808080F080803A
:1002B000808002596970888080809888887002598F
:1002C0006988888888F888888888123969E0404079
:1002D0004040404040E002596938101010101010A2
:1002E0009060025969888890A0C0A09088880259BF
:1002F000698080808080808080F80259698888D8F1
:10030000A8A88888888802596988C8C8A8A8989821
:100310008888025969708888888888888870025916
:1003200069F0888888F080808080015A6A708888A7
:1003300088888888A87008025969F0888888F0A0A1
:1003400090888802596970888080700808887002D7
:100350005969F8202020202020202002596988880F
:100360008888888888887002596988888888505069
:1003700050202002596988888888A8A8A8A8500217
:100380005969888850502050508888025969888857
:1003900050502020202020025969F80810102040D9
:1003A0004080F8113B6BE08080808080808080807E
:1003B000E0025969808040402010100808113B6B12
:1003C000E0202020202020202020E008536320501F
:1003D00088015161F82A22628040025666700878CE
:1003E000889868025969808080F088888888F0023F
:1003F0005666708880808870025969080808788875
:10040000888888780256667088F8808870025969F2
:1004100030484040F040404040005868708888882C
:1004200078088870025969808080B0C88888888878
:100430001238684000C040404040E0004A6A100066
:10044000301010101090906002596980808090A048
:10045000C0A09088123969C040404040404040E010
:10046000025666D0A8A8A8A888025666B0C8888890
:100470008888025666708888888870005868F08876
:100480008888F08080800058687888888878080894
:1004900008025666B0C88080808002566670886008
:1004A0001088700258684040F04040404830025682
:1004B00066888888889868025666888888505020A0
:1004C0000256668888A8A8A8500256668850202040
:1004D000508800586888888898680888700256662E
:1004E000F810204080F8015B6B1820202020C020ED
:1004F0002020201822196980808080808080808060
:10050000015B6BC0202020201820202020C0085331
:100510006348A890FFFFFFFFFFFFFFFFFFFFFFFF04
:10052000FFFFFFFFFFFFFFFFFFFFFFFFFFFFFFFFDB
:10053000FFFFFFFFFF0D00602219698000808080AF
:10054000808080800358682070A8A0A0A870200236
:10055000596930484040E0404048B00356668870D2
:100560005050708802596988885050F820F820202F
:10057000221969808080800080808080124A6A60B1
:100580009080609090601090601A3262A0A0035931
:10059000697088A8D8C8D8A8887004576770087888
:1005A000887800F80356662850A0A05028045363AA
:1005B000F80808163161E00359697088E8D8D8E86E
:1005C000D888700A5161F8174464609090600357AE
:1005D000672020F8202000F807356540A02040E083
:1005E00007356540A04020C02A226240800058683C
:1005F0008888888898E8808002596978E8E8E8E87F
:1006000068282828262161C020226240800735659D
:1006100040C04040E0045767708888887000F80345
:100620005666A050282850A0025A6A40C04040E0B8
:100630000818283808025A6A40C04040E0102808CC
:100640001038025A6A40A04020A0481828380802F2
:100650005969200020204080888870025A6A402012
:100660000020508888F88888025A6A10200020509C
:100670008888F88888025A6A30480020508888F8AC
:100680008888025A6A28500020508888F888880292
:100690005A6A50500020508888F88888025A6A2088
:1006A000502020508888F8888802596958A0A0A056
:1006B000B0E0A0A0B8005B6B7088808080808088EC
:1006C000702040025A6A402000F88080F08080F854
:1006D000025A6A102000F88080F08080F8025A6A7E
:1006E000304800F88080F08080F8025A6A5050004C
:1006F000F88080F08080F8123A6A804000E0404044
:10070000404040E0123A6A204000E0404040404013
:10071000E0124A6A609000E04040404040E0123AF7
:100720006AA0A000E04040404040E0025969F04823
:100730004848E8484848F0025A6A2850008888C863
:10074000A8988888025A6A4020007088888888881B
:1007500070025A6A10200070888888888870025A4F
:100760006A30480070888888888870025A6A2850E1
:100770000070888888888870025A6A505000708893
:1007800088888888700355658850205088015B6B85
:1007900008709898A8A8A8C8C87080025A6A402013
:1007A0000088888888888870025A6A1020008888A3
:1007B0008888888870025A6A3048008888888888C3
:1007C0008870025A6A505000888888888888700229
:1007D0005A6A102000888850202020200259698001
:1007E000F0888888F0808080025969609090A0A08D
:1007F000908888B00259694020007008788898680D
:100800000259691020007008788898680259693088
:100810004800700878889868025969285000700864
:1008200078889868025969505000700878889868EC
:10083000025A6A3048300070087888986802566614
:10084000702870A0A8500058687088808088702038
:10085000400259694020007088F880887002596908
:100860001020007088F88088700259693048007044
:1008700088F88088700259695050007088F8808824
:1008800070123969804000C040404040E012396930
:10089000204000C040404040E0124969609000C0E4
:1008A00040404040E0123969A0A000C040404040B4
:1008B000E0025A6A50206010708888888870025957
:1008C00069285000B0C8888888880259694020008B
:1008D000708888888870025969102000708888881C
:1008E0008870025969304800708888888870025979
:1008F00069285000708888888870025969505000B3
:10090000708888888870035767202000F8002020AE
:10091000015868087098A8A8C870800259694020DA
:10092000008888888898680259691020008888881B
:1009300088986802596930480088888888986802D1
:100940005969505000888888889868005B6B10202F
:10095000008888889868088870005A6A8080B0C8C3
:100960008888C8B08080005B6B5050008888889869
:100970006808887001060A00FE070136026820FF39
:10098000FE08FE07FE0A00602217678080808080D4
:100990000080163363A0A0A00257675050F850F8AB
:1009A00050500257672070A0702870200257674887
:1009B000A8502050A89002576740A0A040A8906877
:1009C000261363808080123767204080808040201B
:1009D000123767804020202040800355658850F8FA
:1009E00050880355652020F8202011336360408033
:1009F000055161F811336340E04002576708081061
:100A000020408080025767205088888850200257F5
:100A1000672060A0202020F80257677088083040C7
:100A200080F8025767F8081030088870025767107E
:100A3000305090F81010025767F880B0C8088870DE
:100A4000025767304080B0C88870025767F80810B6
:100A5000102040400257677088887088887002575D
:100A6000677088986808106011376740E040004060
:100A7000E04011376740E040006040801247671057
:100A8000204080402010045363F800F8124767802C
:100A900040201020408002576770881020200020DE
:100AA000025767708898A8B08070025767205088F6
:100AB00088F88888025767F04848704848F002571D
:100AC0006770888080808870025767F0484848487F
:100AD00048F0025767F88080F08080F8025767F886
:100AE0008080F0808080025767708880809888704E
:100AF000025767888888F8888888123767E04040FE
:100B0000404040E0025767381010101090600257C4
:100B1000678890A0C0A090880257678080808080FE
:100B200080F80257678888D8A8888888025767881D
:100B300088C8A898888802576770888888888870CD
:100B4000025767F08888F080808001586870888834
:100B50008888A87008025767F08888F0A0908802FB
:100B6000576770888070088870025767F8202020C7
:100B700020202002576788888888888870025767F5
:100B800088888850505020025767888888A8A8D83D
:100B9000880257678888502050888802576788885D
:100BA0005020202020025767F80810204080F812BB
:100BB0003767E08080808080E00257678080402037
:100BC000100808123767E02020202020E006536339
:100BD000205088015161F8282262804002556570DA
:100BE000087888780257678080B0C888C8B00255F6
:100BF00065708880887002576708086898889868C8
:100C00000255657088F88070025767304840F040A0
:100C10004040005767788888780888700257678056
:100C200080B0C88888881237674000C0404040E0E4
:100C300010496910003010101090906002576780C2
:100C4000808890E09088123767C04040404040E084
:100C5000025565D0A8A8A888025565B0C8888888BC
:100C60000255657088888870005767B0C888C8B01A
:100C7000808000576768988898680808025565B0B2
:100C8000C880808002556570807008F00257674008
:100C900040F0404048300255658888889868025581
:100CA0006588885050200255658888A8A85002554C
:100CB0006588502050880057678888986808887031
:100CC000025565F8102040F8124767304020C020D8
:100CD000403022176780808080808080124767C004
:100CE0002040304020C006536348A890FFFFFFFF1C
:100CF000FFFFFFFFFFFFFFFFFFFFFFFFFFFFFFFF04
:100D0000FFFFFFFFFFFFFFFFFFFFFFFFFF0A006086
:100D1000221767800080808080800157672078A03C
:100D2000A0A07820025767304840E04048B0025504
:100D300065887050708801586888885020F8202095
:100D40002022176780808000808080015868708032
:100D5000E09048380870193161A00257677088A880
:100D6000C8A888701346667090B05000F0026565A0
:100D70002448904824144262F010154161F0025753
:100D8000677088E8C8C88870095161F816336340F5
:100D9000A0400256662020F82020F8154565609096
:100DA0002040F0154565E0106010E0282262408088
:100DB000015666888888C8B08002576778E8E86876
:100DC0002828282511618020226240801535654041
:100DD000C04040E01346666090906000F002656598
:100DE000904824489001696940C04040E40C143C9C
:100DF0000401696940C04040E81404081C015969B5
:100E0000C0204020C81828780802576720002020FA
:100E10004088700258684020708888F88888025896
:100E2000681020708888F888880258682050708878
:100E300088F8888802586848B0708888F8888802DE
:100E400058685000708888F8888802586820507068
:100E50008888F888880267673C50909CF0909C00D6
:100E6000596970888080808870204002586840F8F6
:100E70008080F08080F802586810F88080F08080D0
:100E8000F802586820F88080F08080F80258685096
:100E9000F88080F08080F81238688040E040404060
:100EA00040E01238682040E040404040E01238689E
:100EB00040A0E040404040E0123868A000E04040E0
:100EC0004040E0025767F04848E84848F002586858
:100ED000285088C8A8988888025868402070888858
:100EE0008888700258681020708888888870025836
:100EF00068205070888888887002586828507088E8
:100F000088888870025868500070888888887002C5
:100F100055658850205088025767709898A8C8C8AF
:100F20007002586840208888888888700258681045
:100F300020888888888870025868205000888888AF
:100F400088700258685000888888888870025868BD
:100F5000102088885020202002576780F088F08079
:100F60008080025767708890A09088B002586840CF
:100F7000200070087888780258681020007008787F
:100F8000887802586820500070087888780258687D
:100F900028500070087888780257675000700878E9
:100FA0008878025868205020700878887802656533
:100FB00078147C907C00576770888088702040028D
:100FC00058684020007088F880700258681020002F
:100FD0007088F880700258682050007088F880701F
:100FE00002576750007088F880701238688040009F
:100FF000C0404040E0123868408000C0404040E0BF
:1010000012386840A000C0404040E0123767A0009E
:10101000C0404040E0025767C03070888888700246
:101020005868285000B0C888888802586840200056
:1010300070888888700258681020007088888870CE
:1010400002586820500070888888700258682850BC
:101050000070888888700257675000708888887090
:101060000355652000F800200255657898A8C8F05F
:1010700002586840200088888898680258681020C4
:101080000088888898680258682050008888889866
:10109000680257675000888888986800596910204E
:1010A0008888986808887000586880F0888888F078
:1010B00080800059695000888898680888700D1AE7
:1010C00011241FBECFEFD8E0DEBFCDBF12E0A0E0FD
:1010D000B1E0E8EBF6E302C005900D92A230B10753
:1010E000D9F726E0A2E0B2E001C01D92A13FB2070D
:1010F000E1F718E0C0E6D8E004C02197FE010E94A5
:10110000C01ACF35D107C9F70E9478170C945A1B23
:101110000C940000FC018081918124813581280F8D
:10112000391F35832483428153812417350780F486
:1011300020852F5F208726813781820F931F841798
:10114000950710F0CA0101979783868381E008957F
:1011500080E00895FC0115821482808191810197BD
:101160009783868310860895FC01848D082E000CD9
:10117000990B0196089580E090E008950B96FC018C
:10118000849108950A96FC0184910895FC0184914C
:1011900008950E94C608882321F0823011F083E070
:1011A000089586E00895FC01E60FF11D849190E01A
:1011B000982F88273196E4918E0F911D089568E04D
:1011C0000C94D30866E00C94D3082EE93FE0009716
:1011D00029F0F9013197F1F70197F9CF08951092AD
:1011E0005F0410925E040895809342051092B90046
:1011F00084FF02C08CE001C088E48093B8000C94A6
:10120000EF08DB011496ED91FC91159720E030E09A
:1012100065E00994CF92DF92EF92FF920F931F93B4
:10122000CF93DF938C017B016A0180E0F601C491CA
:1012300081110BC0CF3F09F457C04C2FB701C80133
:101240000E94010981114EC054C0CF3F11F44FEFED
:10125000F5CFCE3F09F44FC0C03F08F043C0C03EB9
:1012600058F04C2F4F70D7011496ED91FC911597C3
:1012700020E030E062E00CC0C03D68F04C2F4F70C1
:10128000D7011496ED91FC91159720E030E063E0D2
:10129000C801099527C0C03CF8F0D7011496ED911C
:1012A000FC91159720E030E040E064E0C80109952A
:1012B000C295C07FCE5FD0E0CE010E94E508D70185
:1012C0001496ED91FC91159720E030E041E064E048
:1012D000C8010995CE0104C0C7FD04C08C2F90E061
:1012E0000E94E50880E001C081E0BFEFCB1ADB0A75
:1012F0009DCF80E001C081E0DF91CF911F910F91E0
:10130000FF90EF90DF90CF90089510926004EBE291
:10131000F5E080E090E0DC01A45ABA4F17961C92E9
:101320001E921697DC01AD5BBA4F17961C921E9267
:101330001697119202968E30910569F70895AF9233
:10134000BF92CF92DF92EF92FF920F931F93CF93B2
:10135000DF936C018B01F42EE90180E1481709F459
:1013600057C08417A8F0AAE04A135CC0DB011496AA
:10137000ED91FC91159720E030E042E061E0C6017C
:10138000099544E850E0B801C6010E940A094AC024
:10139000B1E14B1709F43FC0E5E14E1343C0FB0137
:1013A000A280B3804CE750E0C6010E940A09D50133
:1013B00018964C91406BB801C6010E940109D801F2
:1013C0001496ED91FC91159720E030E041E062E049
:1013D000C6010995F50123853485D8011496ED9150
:1013E000FC911597D50119964C9166E0C6010995B7
:1013F000811102C080E0E5C0D8011496ED91FC9106
:10140000159720E030E040E063E0C60109950AC08E
:1014100043E750E002C048E650E0B801C6010E9430
:101420000A09CEC0F80102811381F2E3FF1609F424
:1014300088C0FF15B8F085E1F81609F48FC0A7E160
:10144000FA1609F4A1C0B4E1FB12BAC0D8011B9688
:10145000ED91FC911C9719968D919C911A978E0F86
:101460009F1F74C0E6E4FE1609F49FC0F7E4FF1660
:1014700009F4A1C08BE3F812A3C08A819B812D815E
:10148000213029F0233039F4BC01089705C0BC0194
:10149000685F7F4F01C0BC0131E0D80116964D91C5
:1014A0005C9117974817590708F430E041E0D801DC
:1014B0001496ED91FC9115976E177F0708F440E0A4
:1014C00051E06817790708F050E0832F852B4823F7
:1014D00019F4352309F474C0BC80213079F040F050
:1014E000223081F02330A1F4CC24CA94DC2C12C029
:1014F000C12CD12CEE24E394F12C0EC0CC24C39447
:10150000D12C08C0C12CD12CEE24EA94FE2C04C0AE
:10151000C12CD12CE12CF12CB7FE04C0BE01C801B6
:101520000E94F613888199818E0D9F1D998388836F
:101530008A819B818C0D9D1D9B838A83BB0C61F7E7
:101540003FC0BE01C8010E94F6133AC01192E817CD
:10155000F907E1F7C8010E94AA0832C0C8010E9439
:101560008A08882309F446CFD8011B96ED91FC9197
:101570001C9719968D919C911A978E0F9F1F11920F
:10158000E817F907E1F71CC019821882F801848175
:1015900095819B838A838185928501979D838C8326
:1015A000868197819F838E830BC0D80119968D9178
:1015B0009C911A9703C0F801828193819983888353
:1015C00081E0DF91CF911F910F91FF90EF90DF901D
:1015D000CF90BF90AF9008950F931F93CF93DF9359
:1015E000EC01FE0101900020E9F732978081803202
:1015F00011F41082F6CF8E010F5F1F4F8881803269
:1016000029F4B801CE010E94DF1AF8CF62EB71E035
:10161000CE010E94F51A22E0C230D20769F4D093BD
:101620005D05C0935C0510925F0510925E051092F7
:1016300061051092600535C0009719F1FC01108218
:10164000F2E0CA3CDF0719F023E030E002C021E0FD
:1016500030E0220F331FF901E45AFA4FD183C083DF
:10166000CA5CD24019F024E030E002C022E030E051
:10167000220F331FF901E45AFA4F039691838083B6
:1016800010C082E0CA3CD80719F083E090E002C0A5
:1016900081E090E0880F991FFC01E45AFA4FD18352
:1016A000C083DF91CF911F910F910895DC011B96AC
:1016B000ED91FC911C9714968D919C911597481B68
:1016C000590B4770552781E090E001C0880F4A957B
:1016D000EAF7E60FF71F3081222311F0832B02C0B7
:1016E0008095832380830895DB01ED91FC9109941B
:1016F0000F931F93CF93DF9300D0CDB7DEB78C014C
:10170000FC01648175819E012F5F3F4F46E40E947A
:10171000740B89819A81F80191838083648175813A
:101720009E012F5F3F4F47E4C8010E94740B8981DF
:101730009A81F801938382836481758120E030E08F
:1017400048E4C8010E94740BF80185879801275C62
:101750003F4F6481758147E1C8010E94740B0F906F
:101760000F90DF91CF911F910F9108950F931F93C9
:10177000CF93DF93EC010C811D81EFA9F8AD82E0DE
:10178000099520E030E04AE0B801CE010E94740BD8
:10179000182FEFA9F8AD83E00995EFA9F8AD80E027
:1017A0000995112329F0CE010E94780B81E001C038
:1017B00080E0DF91CF911F910F910895BF92CF925A
:1017C000DF92EF92FF920F931F93CF93DF938C01E1
:1017D000E62EDC011696CD91DC911797CE010E9482
:1017E000C608F82EF801868197810E94C908C82E84
:1017F000F1E0FF1203C02FE0B22E02C0BB24BA9466
:10180000D80116968D919C9117970E94C208F82EC8
:10181000F801868197810E94BE08D82ED8011696BD
:101820008D919C9117970E94DF08B0E6BE1538F4A1
:10183000009729F0C80FD91F91E6F92E10C0F801C2
:10184000868197810E94E208F0E4FE1538F4009743
:1018500029F0C80FD91F81E4F82E01C06196DE146B
:1018600090F4D80154961C92549757961C9257970F
:1018700058961C92589755961C92559756961C92BE
:1018800080E090E067C0DF1460F38C2D90E0FE01F3
:1018900024912F3F11F4219658C0FE104DC0D8015D
:1018A00016968D919C9117970E94C6089E012F5FF6
:1018B0003F4FFE01882311F08230E1F48491D8017A
:1018C00057968C935797F901249158962C935897D3
:1018D000FE013396E4915496EC935497FE013496AE
:1018E000E4915596EC935597FE013596E491569602
:1018F000EC9320C08491982F9F709250D8015696F7
:101900009C93569782958F7055968C935597F901B5
:101910002491822F8F7058968C93589722952F7010
:1019200057962C935797FE013296E491E295EF700B
:101930005496EC93CE010EC0FE013296E491EB2159
:101940009C012E0F311DC20FD31FFD1409F489CF46
:10195000F3949DCFDF91CF911F910F91FF90EF9066
:10196000DF90CF90BF90089590915F04911104C0D3
:1019700080935F0460935E0408951F93CF93DF9379
:1019800000D0CDB7DEB720ED37E03A8329839091C0
:10199000BC00982399F429813A81232B51F480913A
:1019A0004205182F127081FD09C081E00E94B40C1D
:1019B00006C029813A8121503109E7CF11E0812FFA
:1019C0000F900F90DF91CF911F91089584E980933C
:1019D000BC0064E080E10C94BD0CCF938093BB000D
:1019E00084E88093BC0063E080E80E94BD0CC82FAF
:1019F000882389F080914205C82FC27081FD0AC0FA
:101A00008091B900887F883229F063E082E00E94EB
:101A1000B40C01C0C1E08C2FCF910895CF93DF9318
:101A2000FC0121A9222379F0EC010E9441178111C8
:101A300002C080E009C08CA5811180E40E94ED0CF9
:101A40008823B9F319AA81E0DF91CF9108950F930C
:101A50001F93CF93C42F89016330C1F050F46130DC
:101A600081F0623009F048C0FC0144A721E021ABBD
:101A700043C0663011F1673079F1653009F03CC040
:101A80000EC0FC0184A90E94F40836C0FC0114A613
:101A900021E021AB411130C00E94E60C2DC00E9414
:101AA0000E0D811104C00E94E60C80E026C08C2F30
:101AB0000E94ED0C811120C0F6CF0E940E0D8823EC
:101AC00091F3CC23C9F0F80181918F010E94ED0CB4
:101AD000882349F3C150F5CF0E940E0D882319F3D6
:101AE000CC2351F0F80184910E94ED0C882329F059
:101AF0000F5F1F4FC150F4CF81E0CF911F910F9125
:101B000008950F931F93FC0101501109040F151F35
:101B100083AD94ADDF01DF960D90BC91A02DA4178D
:101B2000B50720F00817190738F403C0081719077C
:101B300088F00417150770F421503109260F371F5C
:101B400081AD92AD45AD56AD4617570728F428171D
:101B5000390728F480E009C02817390728F481E004
:101B60002617370710F0F6CF81E01F910F910895E7
:101B70002F923F924F925F926F927F928F929F929D
:101B8000AF92BF92CF92DF92EF92FF920F931F938B
:101B9000CF93DF9300D000D0CDB7DEB79C838B838B
:101BA0003B017A01622F0E94DE0B5C01892B09F454
:101BB00068C0EB81FC81868197810E94C908C82E8C
:101BC000EB81FC81D788F08DF983EB81FC818589DD
:101BD000680E711C87FD7A94F9810F2F10E0EB815C
:101BE000FC8186899801280F311D87FD3A95E21AFC
:101BF000F30A2D2D30E0A701B301CF010E94810D22
:101C00008823D9F185010C0D111D57E05D0D569506
:101C10005695569557012B803C80F0E22F0E311CD3
:101C2000452E512C8A2D8E199981891730F5430143
:101C300068018C2D801B8517D0F4F6018491EB810F
:101C4000FC816481758191A280A2B3A2A2A215A297
:101C500084A391014BE3CF015A830E94740BFFEFE1
:101C6000CF1ADF0A28E0820E911C5A81E2CF040DC0
:101C7000151D3FEFA31AB30AD5CFEB81FC818489F0
:101C800001C080E00F900F900F900F90DF91CF91E7
:101C90001F910F91FF90EF90DF90CF90BF90AF908A
:101CA0009F908F907F906F905F904F903F902F907C
:101CB0000895AF92BF92CF92DF92EF92FF920F936F
:101CC0001F93CF93DF931F92CDB7DEB7DC01A95BE3
:101CD000BF4F0D911C915C0135E4A30EB11CD501E1
:101CE000CD90DC907C01B4E0EB0EF11CDC015D9644
:101CF000ED91FC915E97C70169830995AC01400F96
:101D0000511F2981B601C7010E94B80DF50120813C
:101D10003181280F311D87FD3A953183208381E081
:101D200090E00F90DF91CF911F910F91FF90EF9076
:101D3000DF90CF90BF90AF90089510926004109202
:101D4000CA02E9E2F5E080E090E0DC01A45ABA4F73
:101D500013961C921E921297DC01AD5BBA4F13963C
:101D60001C921E921297119202968231910569F788
:101D700008954F925F926F927F928F929F92AF924F
:101D8000BF92CF92DF92EF92FF920F931F93CF9368
:101D9000DF93C1E0D0E0CE01825092402C0100E6FA
:101DA00011E09EE4E92E91E0F92E26E0C22E21E01A
:101DB000D22E31ECA32E31E0B32E8AE895E00E94BA
:101DC00063108F3F09F46EC120915C0430915D0473
:101DD0008A3019F08D3021F055C12115310569F394
:101DE000F901EC56FC4F108210925D0410925C04D5
:101DF000E4E9F3E091919923F1F08EE3890F8230C9
:101E0000C8F78081282F2F73C0E49C9FC001112444
:101E1000822B8083DF01CD01845993402D912223B1
:101E200029F0CD010297EC012883F5CFDC01AD56F6
:101E3000BC4F1C92DFCF66EB71E084E993E00E9417
:101E4000F51A9093930380939203892B19F10E94C2
:101E50009D0E10935D0500935C05F0925F05E09286
:101E60005E05D0926105C0926005109257050E94F0
:101E7000AE15B0926305A092620586E795E0909357
:101E80006505809364050E94FF1560E08CE00E9468
:101E90007C1393CF65EC71E084E993E00E94F51A1E
:101EA0004C019093930380939203892B31F00E940D
:101EB0008509B401695F7F4F53C06DEC71E084E91F
:101EC00093E00E94F51A4C01909393038093920340
:101ED000892B91F00E948509B401695F7F4F80E6EC
:101EE00094E00E94DF1A80E694E09093630580936B
:101EF00062050E94FF1561CF65ED71E084E993E012
:101F00000E94F51A4C019093930380939203892BBE
:101F100099F00E949D0EF4018781811103C062E057
:101F200072E003C0B401695F7F4F8AEC92E00E94C7
:101F3000DF1A8AEC92E0A3C06DED71E084E993E0D2
:101F40000E94F51A9093930380939203892B69F072
:101F500060E08CE00E947C130E9485096DED71E0C9
:101F600080E694E00E94DF1A88C065EE71E084E9A3
:101F700093E00E94F51A4C0190939303809392038F
:101F8000892B21F10E94AE15FCE08F0E911CB4014B
:101F900086E795E00E94D61A892B09F40ECF8AE0D5
:101FA000682E712C3FEF631A730AE4016881C30144
:101FB00001970E944C1BF40181914F0181508E3F8B
:101FC00088F360E0C3010E944C1BF7CE62EF71E022
:101FD00084E993E00E94F51A90939303809392030F
:101FE000009779F1BC01685F7F4F82E092E00E9428
:101FF000DF1A60E270E082E092E00E94CB1A4C01AE
:10200000840C951CA40162E072E087E595E00E94D3
:10201000E61AF401E95AFA4F1082E7E5F5E001907B
:102020000020E9F73197BF01675575406E5F7D4F1E
:1020300082E092E00E94DF1A82E092E00E94EC0AC5
:10204000BCCE6BEF71E084E993E00E94F51A9093A7
:10205000930380939203892B09F4AFCE61E08CE067
:102060000E947C136DED71E080E694E00E94D61A28
:10207000892B09F0A2CE1092600480E694E00E94C1
:10208000EC0A37CF283C310508F097CEA9014F5F05
:102090005F4F50935D0440935C04F901EC56FC4F94
:1020A00080838BCEDF91CF911F910F91FF90EF90A6
:1020B000DF90CF90BF90AF909F908F907F906F9068
:1020C0005F904F900895FC01918D828D981761F07B
:1020D000828DDF01A80FB11D5D968C91928D9F5F5F
:1020E0009F73928F90E008958FEF9FEF0895FC010A
:1020F000918D828D981731F0828DE80FF11D858DBD
:1021000090E008958FEF9FEF0895FC01918D228D4F
:10211000892F90E0805C9F4F821B91098F739927D4
:1021200008958AE895E00E94851021E0892B09F442
:1021300020E0822F0895FC01848DDF01A80FB11DDE
:10214000A35ABF4F2C91848D90E001968F739927ED
:10215000848FA689B7892C93A089B1898C918064DA
:102160008C93938D848D981306C00288F389E02D9B
:1021700080818F7D80830895EF92FF920F931F934C
:10218000CF93DF93EC0181E0888F9B8D8C8D98132A
:1021900005C0E889F989808185FD24C0F62E0B8D64
:1021A00010E00F5F1F4F0F731127E02E8C8DE81288
:1021B0000CC00FB607FCFACFE889F989808185FF4A
:1021C000F5CFCE010E949B10F1CF8B8DFE01E80F61
:1021D000F11DE35AFF4FF0820B8FEA89FB89808162
:1021E000806207C0EE89FF896083E889F989808170
:1021F0008064808381E090E0DF91CF911F910F9107
:10220000FF90EF900895CF93DF93EC01888D8823A2
:10221000C9F0EA89FB89808185FD05C0A889B98953
:102220008C9186FD0FC00FB607FCF5CF808185FF2E
:10223000F2CFA889B9898C9185FFEDCFCE010E949C
:102240009B10E7CFDF91CF91089580E090E0892B3C
:1022500029F00E94911081110C94000008958330A0
:1022600081F028F4813099F08230A1F00895873010
:10227000A9F08830B9F08430D1F4809180008F7D4E
:1022800003C0809180008F7780938000089584B58B
:102290008F7702C084B58F7D84BD08958091B00092
:1022A0008F7703C08091B0008F7D8093B000089538
:1022B000CF93DF9390E0FC01E452FF4F2491FC01A7
:1022C000E853FF4F8491882361F190E0880F991FB4
:1022D000FC01E655FF4FC591D491FC01EC54FF4F32
:1022E000A591B491611109C09FB7F8948881209598
:1022F00082238883EC912E230BC0623061F49FB758
:10230000F8943881822F809583238883EC912E2B3B
:102310002C939FBF06C08FB7F894E8812E2B28839B
:102320008FBFDF91CF9108953FB7F8948091370523
:1023300090913805A0913905B0913A0526B5A89B32
:1023400005C02F3F19F00196A11DB11D3FBFBA2F47
:10235000A92F982F8827820F911DA11DB11DBC01A7
:10236000CD0142E0660F771F881F991F4A95D1F76C
:1023700008958F929F92AF92BF92CF92DF92EF9289
:10238000FF926B017C010E9494114B015C01C1140E
:10239000D104E104F104F1F00E949411DC01CB01BD
:1023A00088199909AA09BB09883E9340A105B1057E
:1023B00070F321E0C21AD108E108F10888EE880E16
:1023C00083E0981EA11CB11CC114D104E104F104E6
:1023D00019F7DDCFFF90EF90DF90CF90BF90AF90D7
:1023E0009F908F90089508952F923F924F925F9201
:1023F0006F927F928F929F92AF92BF92CF92DF9215
:10240000EF92FF920F931F93CF93DF9300D01F9211
:10241000CDB7DEB77C018901FB01C280D3804B338D
:1024200009F47AC028F4473111F14233F1F104C0C4
:10243000463441F0473459F09801B601C7010E9473
:10244000740BECC09E012F5F3F4F46E404C09E0119
:102450002F5F3F4F47E4B601C7010E94740B89818B
:102460009A8196958795F80191838083D6C047E13C
:10247000B6010E94740BF801808191819695879531
:1024800091838083848195819695879595838483B4
:1024900082819381969587959383828386819781A4
:1024A0009695879597838683B8C0F901808091803F
:1024B000880C991CA280B380AA0CBB1C91828082DC
:1024C000B382A282980142E3B6010E94740B3401E8
:1024D000FFEF6F1A7F0AF80171826082B382A282D5
:1024E000980142E3B601C7010E94740BFFEFAF1AD7
:1024F000BF0AF80171826082B382A282980142E32E
:10250000B601C7010E94740BF80191828082B382E8
:10251000A282980142E37DC0F9019481558188E04F
:10252000212C312C220C331C220C331C97FF02C0AF
:10253000F3E02F2A990F8150A9F7F80140805180CC
:10254000440C551CA280B380AA0CBB1C50FF06C0D3
:102550003201FFEF6F1A7F0A450105C045012FEFD9
:10256000821A920A3201F801348251824082B38287
:10257000A28298014BE3B601C7015B830E94740BF2
:10258000F80171826082938282825B815583980117
:102590004BE3B601C7015B830E94740BF8012482F0
:1025A0005B81513099F058F05230B9F05330D9F482
:1025B00088E0A81AB108E8E08E1A910814C0F8E083
:1025C0004F0E511C28E0620E711C0DC088E0A80E51
:1025D000B11CE8E08E0E911C06C0F8E04F1A5108BD
:1025E00028E0621A7108F80151824082B382A28207
:1025F000558398014BE3B601C7015B830E94740BBE
:10260000F80171826082938282825B815583980196
:102610004BE3B601C7010E94740B81E00F900F904D
:102620000F90DF91CF911F910F91FF90EF90DF906E
:10263000CF90BF90AF909F908F907F906F905F9062
:102640004F903F902F9008951F920F920FB60F92C8
:1026500011242F933F934F935F936F937F938F93A7
:102660009F93AF93BF93EF93FF938AE895E00E9407
:102670009B10FF91EF91BF91AF919F918F917F91AF
:102680006F915F914F913F912F910F900FBE0F90DF
:102690001F9018951F920F920FB60F9211242F932F
:1026A0008F939F93EF93FF93E0919A05F0919B0591
:1026B0008081E091A005F091A10582FD12C090817A
:1026C0008091A3058F5F8F732091A405821751F02D
:1026D000E091A305F0E0E657FA4F958F8093A305AC
:1026E00001C08081FF91EF919F918F912F910F9069
:1026F0000FBE0F901F9018951F93CF93DF93282F35
:1027000030E0F901E051FF4F8491F901E452FF4FAD
:10271000D491F901E853FF4FC491CC23C9F0162F8F
:1027200081110E942F11EC2FF0E0EE0FFF1FEC54EF
:10273000FF4FA591B4918FB7F894111105C09C91EA
:10274000ED2FE095E92302C0EC91ED2BEC938FBFC8
:10275000DF91CF911F9108951F920F920FB60F92A4
:1027600011242F933F938F939F93AF93BF938091A7
:10277000330590913405A0913505B091360530911F
:10278000320523E0230F2D3720F40196A11DB11D42
:1027900005C026E8230F0296A11DB11D2093320526
:1027A0008093330590933405A0933505B093360597
:1027B0008091370590913805A0913905B0913A057F
:1027C0000196A11DB11D8093370590933805A09304
:1027D0003905B0933A05BF91AF919F918F913F9189
:1027E0002F910F900FBE0F901F901895FB01428103
:1027F0005381DC0114962D913C9115974217530794
:1028000098F016962D913C9117972417350760F094
:102810006081718119962D913C911A976217730707
:1028200018F426810C94560B0895CF92DF92EF9204
:10283000FF920F931F93CF93DF936C017A018B016B
:10284000C0E0D0E0CE15DF0589F0D8016D918D0193
:10285000D601ED91FC910190F081E02DC601099522
:10286000892B11F47E0102C02196ECCFC701DF91C4
:10287000CF911F910F91FF90EF90DF90CF9008952F
:10288000DF92EF92FF920F931F93CF93DF937C0120
:10289000EB0100E010E0DD24DA94CE01801B910B07
:1028A0000897D0F060912F067091300610934C0677
:1028B00000934B06F0924E06E0924D0610925006A1
:1028C000D0924F062BE436E04BE38BE296E00E9479
:1028D000740B085F1F4FE1CFCE01887FC770DD27E3
:1028E000209741F127E0C22760912F0670913006B2
:1028F00090934C0680934B06F0924E06E0924D0664
:10290000109250062196C770DD278FEF01C0880F07
:10291000CA95EAF780934F062BE436E04BE38BE24F
:1029200096E0DF91CF911F910F91FF90EF90DF9094
:102930000C94740BDF91CF911F910F91FF90EF904A
:10294000DF900895EF92FF920F931F93CF93DF9341
:102950007C018B01C0E0D0E0B701CE010E944014A1
:1029600021960C171D07C1F7DF91CF911F910F9191
:10297000FF90EF900895EF92FF920F931F93CF93E4
:10298000DF93EC017B018B019C0140E050E060E0B3
:1029900070E08BE296E00E94810D882351F0B70130
:1029A000CE01DF91CF911F910F91FF90EF900C948A
:1029B000A214DF91CF911F910F91FF90EF90089596
:1029C000EF92FF920F931F93CF93DF93EC017B0164
:1029D00001E010E09B01AC0160E070E08BE296E06A
:1029E0000E94810D882351F0B701CE01DF91CF9174
:1029F0001F910F91FF90EF900C944014DF91CF91B5
:102A00001F910F91FF90EF9008950E94C61A0F93A7
:102A10001F93CF93DF938C01C7E2D6E0EBADFCAD03
:102A200082E00995EBADFCAD81E0099520E030E056
:102A300044E1B8018BE296E00E94740B24E636E094
:102A400047E1B8018BE296E00E94740BEBADFCAD60
:102A500080E0DF91CF911F910F910994AF92BF92C7
:102A6000CF92DF92EF92FF920F931F93CF93DF935A
:102A700000D0CDB7DEB76C017B01E0914406F09148
:102A800045068BE296E049835A830995E80EF91EC4
:102A90004981A42E5A81B52E00E010E0F501219164
:102AA0005F01222371F0A701B6018BE296E00E943C
:102AB000B80D282F880F330BC20ED31E020F131F21
:102AC000EDCFC8010F900F90DF91CF911F910F9123
:102AD000FF90EF90DF90CF90BF90AF9008958091DE
:102AE000310690913206009709F437C020914606CE
:102AF000FC01211107C03596E491E0934706FC01E3
:102B00003C960FC0213039F43F96E491E09347069C
:102B1000FC01709606C03D96E491E0934706FC01E7
:102B20003E96E491E093480680914706082E000CFB
:102B3000990B20914806821B910927FD93952091BE
:102B40004906203441F0829FC001112426E0969569
:102B500087952A95E1F780934A0608950F931F936E
:102B6000CF93DF930AE010E0C6E7D5E0C8010E94EA
:102B7000441B89930F5F1F4F81508E3FB8F318821B
:102B8000DF91CF911F910F9108950F931F93CF93D2
:102B9000E0913D06F0913E06309719F08BE296E009
:102BA000099500912F0610913006E0916206F09190
:102BB000630682E00995E0916206F091630681E088
:102BC000099520E030E045E1B8018BE296E00E94F3
:102BD000740BC82F882341F024E636E047E1B801A2
:102BE0008BE296E00E94740BE0916206F09163061E
:102BF00080E009958C2FCF911F910F9108954F92EE
:102C00005F926F927F928F929F92AF92BF92CF927C
:102C1000DF92EF92FF920F931F93CF93DF938091F8
:102C20007006811107C081E0809370068BE296E008
:102C30000E94B60B80912F06909130060E940715D6
:102C4000CC24CA94DC2C77247394209172053091A3
:102C500073056091740570917505C901880F991FFE
:102C6000880F991F37FF02C02F5F3F4F359527957B
:102C7000821B930B05970E94E01480912B06909184
:102C80002C068435910519F06CE070E002C069E013
:102C900070E0809174059091750501970E94BB14B6
:102CA0003CE5832E35E0932E43E4E42E45E0F42EFC
:102CB00000E010E00E94B90E0115110519F4109200
:102CC000510613C0709251060330110574F08091C3
:102CD00072059091730597FD0196959587950397D9
:102CE000909371058093700504C0D0927105C092D5
:102CF0007005F401419151914F014115510509F4BD
:102D000085C00115110509F067C080915705811133
:102D10000BC08091430590914405480F591F60E016
:102D200070E081E090E070C047E555E060E070E061
:102D300081E090E00E942E15A0905C05B0905D05AA
:102D40008091430590914405A80EB91E60905705E7
:102D50006620D9F1662D8BE296E00E94DE0BC091D1
:102D60004006DD27C1950CF4D09587E5482E85E017
:102D7000582EFFEF4F1A5F0AF2018081882369F015
:102D800090913F06C90FD11D97FDDA95682E682FE7
:102D90008BE296E00E94DE0BECCFF0E26F1661F062
:102DA000209140068091420690E0820F911D27FD00
:102DB0009A958C0F9D1F0BC080913F069E01280F96
:102DC000311D87FD3A95C90102C080E090E0A50160
:102DD00060E070E0029718C0F70180819181480F90
:102DE000591F8091720590917305089FB001099F4A
:102DF000700D189F700D11248091700590917105D0
:102E0000680F791F80E090E00E942E150F5F1F4F22
:102E1000F2E0EF0EF11C0A30110509F04BCF0E94D1
:102E2000C515811112CFDF91CF911F910F91FF90A6
:102E3000EF90DF90CF90BF90AF909F908F907F905A
:102E40006F905F904F9008950F931F93CF93DF93F0
:102E50008C01C0E0D0E0F80161918F01662359F048
:102E60008BE296E00E94DE0B80913F06C80FD11DD9
:102E700087FDDA95F0CFCE01DF91CF911F910F91B1
:102E80000895CF9384EA8093BC0061E080E80E94BB
:102E9000BD0C882359F08091B900887F883041F0BB
:102EA000803131F061E082E00E94B40CC0E01DC0CE
:102EB00088E78093BB0084E88093BC0062E080E8F0
:102EC0000E94BD0C882391F380914205C82FC270E7
:102ED00081FD0AC08091B900887F883129F062E0C5
:102EE00082E00E94B40C01C0C1E08C2FCF91089504
:102EF000CF93DF9300D01F92CDB7DEB7789484B51F
:102F0000826084BD84B5816084BD85B5826085BDE5
:102F100085B5816085BD80916E00816080936E0073
:102F20001092810080918100826080938100809165
:102F30008100816080938100809180008160809316
:102F400080008091B10084608093B1008091B000D6
:102F500081608093B00080917A00846080937A00D1
:102F600080917A00826080937A0080917A008160FB
:102F700080937A0080917A00806880937A00109222
:102F8000C100E0919A05F0919B0582E08083E09179
:102F90009605F09197051082E0919805F0919905BA
:102FA00084E480831092A205E0919E05F0919F0534
:102FB00086E08083E0919C05F0919D058081806191
:102FC0008083E0919C05F0919D05808188608083DD
:102FD000E0919C05F0919D05808180688083E0915F
:102FE0009C05F0919D0580818F7D808361E08DE05F
:102FF0000E94581161E08CE00E94581160E088E066
:103000000E94581161E088E00E947C1360E08CE02F
:103010000E947C137BEBC72E78E0D72EE3E02E2EA8
:10302000312CF4EF4F2EF1E15F2EA0E06A2EA1E0EB
:103030007A2EB0E6AB2EB1E0BB2E1EE4812E11E05D
:10304000912E82E090E00E94441B80933D05805BBE
:10305000803218F088EB80933D0510913D05110FEB
:1030600080917006811107C081E0809370068BE229
:1030700096E00E94B60B60912F067091300619837E
:103080009E012F5F3F4F4FE08BE296E00E94740B52
:1030900020912B0630912C068091310690913206BA
:1030A0002435310551F484579940B1F084E799E013
:1030B000909332068093310609C08450914061F0AC
:1030C00024E031E030933206209331060E946F15E0
:1030D000D0924506C092440681E0809346060E9445
:1030E0006F1580913806803331F48FEF809351064D
:1030F000809352060BC0883221F0823021F081E0AB
:1031000003C08FEF01C083E08093510684EB98E009
:10311000909345068093440680914A06082E000C41
:10312000990B909373058093720580912D06909171
:103130002E0690933C0580933B0580912B06909141
:103140002C0690937505809374051092710510926A
:1031500070050E949D0E00E010E0809170068111C4
:1031600007C091E0909370068BE296E00E94B60B48
:1031700080912F06909130060E94071580912D06B0
:1031800090912E06B1010E94AC1AE0902B06F090AF
:103190002C06F694E79481E791E06A837B830E9492
:1031A00024179695879541E751E06A817B81F70165
:1031B000E81BF90BCF010E942E150E94C515811145
:1031C000DDCF64EF71E080E090E00E94B911809162
:1031D0002F069091300600FF11C0F1E080309F076C
:1031E00041F0909303018093020170923006609247
:1031F0002F0650920101409200010BC08050914077
:1032000061F48091020190910301909330068093C4
:103210002F068BE296E00E94780B0F5F1F4F053060
:10322000110509F09ACFB0925D05A0925C059092CD
:103230005F0580925E05109257050E94AE1581ECE5
:1032400091E0909363058093620586E795E0909303
:103250006505809364050E94FF1560ED77E080E0CE
:1032600090E00E94B911E8EFF0E08491E4EEF0E024
:103270001491E0EDF0E00491002371F081110E94BF
:103280002F11E02FF0E0EE0FFF1FE254FF4FA5914A
:10329000B491EC911E23F9F480913D058F5F8093EA
:1032A0003D05803D18F080EB80933D0560913D0524
:1032B00082E090E00E944C1B80913D0540E160E679
:1032C00074E090E00E940F1B80E694E0909361050B
:1032D00080936005B6CE86E091E09093610580937F
:1032E00060050E94FF1586E0A82EB12C96E0792E8D
:1032F0000E94B90E2091400530914105C901019607
:1033000090934105809340058091740590917505D7
:103310008435910519F080E090E702C080E090E3E9
:103320002817390709F076C0109241051092400520
:1033300080913E0590913F05019690933F058093C3
:103340003E05B5010E94AC1A892B21F461E08DE0A5
:103350000E947C1328E2E22E25E0F22E03E415E021
:103360003CE5C32E35E0D32E812C912CF7018081D2
:1033700018164CF4843019F4F8011182108281502F
:10338000F701808331C081149104A1F487E595E0B1
:103390000E9424172C0120915C0530915D058091DD
:1033A000430590914405820F931F0E942417840DBA
:1033B000951D0AC0F60120813181F801808191813B
:1033C000820F931F0E942417209174053091750578
:1033D0002817390738F4F80180819181019691838B
:1033E000808302C0F7017082FFEF8F1A9F0A2FEFD0
:1033F000E21AF20A0E5F1F4F32E0C30ED11C8AE0C0
:103400008816910409F0B2CF0E94FF1560E08DE0AC
:103410000E947C130E9425116BCF10928D05109293
:103420008C0588EE93E0A0E0B0E080938E05909349
:103430008F05A0939005B093910586E991E0909354
:103440008B0580938A0585EC90E090939705809397
:10345000960584EC90E0909399058093980580EC14
:1034600090E090939B0580939A0581EC90E0909377
:103470009D0580939C0582EC90E090939F0580933E
:103480009E0586EC90E09093A1058093A005109294
:10349000A3051092A4051092A5051092A6051092FE
:1034A0002A061092290686EA91E0909328068093D6
:1034B000270610926D0610926C0610926F061092FD
:1034C0006E0610927006109232061092310610921B
:1034D0003406109233061092360681E0809335064A
:1034E00082E28093370610923E0610923D06E4E594
:1034F000F6E09FEF8EE08E0F91938E13FDCF81E06B
:10350000809351062BEB38E0309345062093440618
:1035100080934606109247061092480680E48093F6
:10352000490610924A0683EF91E1909363068093D7
:10353000620686E891E09093300680932F06109201
:103540005F068BE296E00E94B60B8EEA91E09093C4
:103550002806809327060895AA1BBB1B51E107C0CC
:10356000AA1FBB1FA617B70710F0A61BB70B881F13
:10357000991F5A95A9F780959095BC01CD010895A2
:10358000EE0FFF1F0590F491E02D099481E090E08B
:10359000F8940C945A1BFC018191861721F0882322
:1035A000D9F7992708953197CF010895FB01DC01E0
:1035B0008D91019080190110D9F3990B0895FB01A9
:1035C000DC0101900D920020E1F70895FB01DC0180
:1035D0004150504048F001900D920020C9F701C0C1
:1035E0001D9241505040E0F70895FB015191552341
:1035F000A9F0BF01DC014D9145174111E1F759F4E4
:10360000CD010190002049F04D9140154111C9F3C1
:10361000FB014111EFCF81E090E001970895BB27B6
:103620004A3031F4992322F4BDE2909581959F4F61
:103630000C941B1BBB27FB015527AA27880F991F3A
:10364000AA1FA41710F0A41B83955051B9F7A05DD1
:10365000AA3308F0A95DA193009779F7B111B1934E
:103660001192CB010C94341BDC01FC01672F71918A
:103670007723E1F7329704C07C916D937083629158
:10368000AE17BF07C8F30895F999FECF92BD81BD6B
:10369000F89A992780B50895262FF999FECF1FBA79
:1036A00092BD81BD20BD0FB6F894FA9AF99A0FBE6B
:0836B00001960895F894FFCF84
:1036B800F4110000000068747470733A2F2F686169
:1036C800636B616461792E696F2F70726F6A6563CD
:1036D800742F31313537302D776966692D776562FA
:1036E800726164696F2D776974682D6573703832FB
:1036F80036362D616E642D767331303533003D3D9D
:1037080020286329204B61726157696E203D3D0076
:103718004B61726164696F206C63642056312E338B
:10372800004B61726164696F00080040000000008E
:103738000000800071069F097901270D0000F1063D
:10374800800000000000BC1015148510631077106D
:10375800031100000000590E151400000000590E56
:103768001514202D200056532056657273696F6E0C
:103778000049503A004D455441233A2000494359E5
:1037880034233A200049435930233A200053544FF8
:10379800505045440053746174696F6E2049703A03
:1037A80020004D45534554233A200059494E47239C
:0237B80000000F
:00000001FF
