:100000000C9460080C9488080C9488080C94880858
:100010000C9488080C9488080C9488080C944F0C55
:100020000C9488080C9488080C9488080C94880810
:100030000C9488080C9488080C9488080C94880800
:100040000C9498110C9488080C9497100C947110CF
:100050000C9488080C9488080C9488080C948808E0
:100060000C9488080C94880801060D00FE090166AE
:1000700002D620FFFE0BFE0AFE0D006022196980E9
:100080008080808080800080183363A0A0A0035708
:10009000675050F850F850500259692078A0A0706D
:1000A0002828F02002596948A85010204050A890F4
:1000B00002586840A0A040A09890682813638080F0
:1000C00080113B6B20404080808080804040201128
:1000D0003B6B80404020202020204040800655651A
:1000E00020A870A8200455652020F8202011336333
:1000F000604080065161F811336340E04002596965
:1001000008081010204040808002596920508888DB
:1001100088888850200259692060A0202020202053
:10012000F80259697088880810204080F8025969DF
:10013000F8081020700808887002596910103050B3
:100140005090F81010025969F88080B0C8080888EB
:100150007002596970888080F088888870025969B7
:10016000F8081010202040404002596970888888A3
:10017000708888887002596970888888780808882B
:100180007011386840E040000040E040113868409D
:10019000E040000060408002596908102040804023
:1001A000201008045464F80000F8025969804020C7
:1001B000100810204080025969708888081020209B
:1001C000002002596970888898A8A8B080780259E0
:1001D000692050888888F8888888025969F04848DA
:1001E0004870484848F00259697088808080808053
:1001F0008870025969F048484848484848F0025910
:1002000069F8808080F0808080F8025969F88080E9
:1002100080F0808080800259697088808080988812
:10022000887002596988888888F88888888812398F
:1002300069E040404040404040E0025969381010B9
:10024000101010109060025969888890A0C0A0908A
:1002500088880259698080808080808080F8025977
:10026000698888D8A8A88888888802596988C8C8F1
:10027000A8A898988888025969708888888888888A
:100280008870025969F0888888F080808080015ADF
:100290006A70888888888888A87008025969F088F8
:1002A0008888F0A0908888025969708880807008DA
:1002B000088870025969F820202020202020200280
:1002C00059698888888888888888700259698888E8
:1002D0008888505050202002596988888888A8A8AA
:1002E000A8A8500259698888505020505088880228
:1002F0005969888850502020202020025969F80828
:10030000101020404080F8113B6BE080808080809E
:1003100080808080E0025969808040402010100871
:1003200008113B6BE0202020202020202020E00826
:100330005363205088015161F82A2262804002569E
:1003400066700878889868025969808080F088888B
:100350008888F00256667088808088700259690823
:1003600008087888888888780256667088F88088B7
:100370007002596930484040F040404040005868A1
:100380007088888878088870025969808080B0C831
:10039000888888881238684000C040404040E000AB
:1003A0004A6A100030101010109090600259698055
:1003B000808090A0C0A09088123969C04040404021
:1003C000404040E0025666D0A8A8A8A88802566619
:1003D000B0C88888888802566670888888887000C7
:1003E0005868F0888888F08080800058687888880D
:1003F0008878080808025666B0C880808080025657
:10040000667088601088700258684040F040404034
:1004100048300256668888888898680256668888B8
:10042000885050200256668888A8A8A850025666B0
:1004300088502020508800586888888898680888E4
:1004400070025666F810204080F8015B6B1820207F
:100450002020C020202020182219698080808080E0
:1004600080808080015B6BC020202020182020200D
:1004700020C008536348A890FFFFFFFFFFFFFFFF66
:10048000FFFFFFFFFFFFFFFFFFFFFFFFFFFFFFFF7C
:10049000FFFFFFFFFFFFFFFFFF0D006022196980D4
:1004A00000808080808080800358682070A8A0A091
:1004B000A8702002596930484040E0404048B003ED
:1004C000566688705050708802596988885050F874
:1004D00020F8202022196980808080008080808020
:1004E000124A6A609080609090601090601A326248
:1004F000A0A00359697088A8D8C8D8A888700457E4
:1005000067700878887800F80356662850A0A050D5
:1005100028045363F80808163161E00359697088AC
:10052000E8D8D8E8D888700A5161F8174464609018
:1005300090600357672020F8202000F807356540B9
:10054000A02040E007356540A04020C02A2262403C
:10055000800058688888888898E88080025969787F
:10056000E8E8E8E868282828262161C020226240BF
:100570008007356540C04040E00457677088888830
:100580007000F8035666A050282850A0025A6A400E
:10059000C04040E00818283808025A6A40C040406D
:1005A000E01028081038025A6A40A04020A04818DD
:1005B000283808025969200020204080888870026D
:1005C0005A6A40200020508888F88888025A6A10A9
:1005D000200020508888F88888025A6A3048002015
:1005E000508888F88888025A6A28500020508888E5
:1005F000F88888025A6A50500020508888F8888805
:10060000025A6A20502020508888F8888802596948
:1006100058A0A0A0B0E0A0A0B8005B6B708880805C
:1006200080808088702040025A6A402000F88080D4
:10063000F08080F8025A6A102000F88080F08080F4
:10064000F8025A6A304800F88080F08080F8025A38
:100650006A505000F88080F08080F8123A6A80403A
:1006600000E04040404040E0123A6A204000E04054
:1006700040404040E0124A6A609000E04040404004
:1006800040E0123A6AA0A000E04040404040E00252
:100690005969F0484848E8484848F0025A6A2850E2
:1006A000008888C8A8988888025A6A402000708804
:1006B0008888888870025A6A102000708888888824
:1006C0008870025A6A30480070888888888870026A
:1006D0005A6A28500070888888888870025A6A5040
:1006E000500070888888888870035565885020502D
:1006F00088015B6B08709898A8A8A8C8C870800289
:100700005A6A40200088888888888870025A6A104F
:10071000200088888888888870025A6A3048008853
:10072000888888888870025A6A505000888888882B
:10073000888870025A6A1020008888502020202063
:1007400002596980F0888888F08080800259696049
:100750009090A0A0908888B002596940200070084D
:10076000788898680259691020007008788898681D
:1007700002596930480070087888986802596928D9
:1007800050007008788898680259695050007008C5
:1007900078889868025A6A304830007008788898DB
:1007A00068025666702870A0A8500058687088804B
:1007B00080887020400259694020007088F8808845
:1007C000700259691020007088F880887002596999
:1007D0003048007088F88088700259695050007065
:1007E00088F8808870123969804000C040404040DD
:1007F000E0123969204000C040404040E0124969A1
:10080000609000C040404040E0123969A0A000C0A4
:1008100040404040E0025A6A50206010708888884A
:100820008870025969285000B0C8888888880259A1
:1008300069402000708888888870025969102000FB
:100840007088888888700259693048007088888864
:100850008870025969285000708888888870025909
:10086000695050007088888888700357672020007E
:10087000F8002020015868087098A8A8C870800265
:100880005969402000888888889868025969102032
:100890000088888888986802596930480088888864
:1008A000889868025969505000888888889868003C
:1008B0005B6B1020008888889868088870005A6AE6
:1008C0008080B0C88888C8B08080005B6B505000C2
:1008D000888888986808887001060A00FE07013633
:1008E000026820FFFE08FE07FE0A006022176780EC
:1008F000808080800080163363A0A0A002576750DC
:1009000050F850F850500257672070A0702870209F
:1009100002576748A8502050A89002576740A0A0EF
:1009200040A890682613638080801237672040803B
:10093000808040201237678040202020408003556F
:10094000658850F850880355652020F82020113321
:1009500063604080055161F811336340E040025705
:1009600067080810204080800257672050888888D8
:1009700050200257672060A0202020F8025767709F
:100980008808304080F8025767F8081030088870EF
:1009900002576710305090F81010025767F880B077
:1009A000C8088870025767304080B0C88870025706
:1009B00067F80810102040400257677088887088D8
:1009C0008870025767708898680810601137674010
:1009D000E0400040E04011376740E0400060408068
:1009E00012476710204080402010045363F800F83D
:1009F000124767804020102040800257677088109F
:100A000020200020025767708898A8B08070025795
:100A10006720508888F88888025767F048487048EF
:100A200048F002576770888080808870025767F0AE
:100A30004848484848F0025767F88080F08080F8BE
:100A4000025767F88080F080808002576770888046
:100A500080988870025767888888F8888888123755
:100A600067E04040404040E00257673810101010E7
:100A700090600257678890A0C0A090880257678056
:100A80008080808080F80257678888D8A888888806
:100A90000257678888C8A89888880257677088882E
:100AA00088888870025767F08888F08080800158B5
:100AB000687088888888A87008025767F08888F06E
:100AC000A090880257677088807008887002576706
:100AD000F82020202020200257678888888888886E
:100AE000700257678888885050502002576788885E
:100AF00088A8A8D88802576788885020508888021C
:100B0000576788885020202020025767F808102057
:100B10004080F8123767E08080808080E00257676D
:100B200080804020100808123767E0202020202015
:100B3000E0065363205088015161F828226280400A
:100B400002556570087888780257678080B0C88839
:100B5000C8B00255657088808870025767080868B9
:100B6000988898680255657088F8807002576730D9
:100B70004840F0404040005767788888780888707F
:100B80000257678080B0C88888881237674000C0E5
:100B9000404040E010496910003010101090906003
:100BA00002576780808890E09088123767C0404085
:100BB000404040E0025565D0A8A8A888025565B01D
:100BC000C88888880255657088888870005767B023
:100BD000C888C8B0808000576768988898680808F7
:100BE000025565B0C880808002556570807008F03D
:100BF0000257674040F04040483002556588888879
:100C0000986802556588885050200255658888A8E4
:100C1000A8500255658850205088005767888898EA
:100C200068088870025565F8102040F81247673050
:100C30004020C020403022176780808080808080E4
:100C4000124767C02040304020C006536348A89038
:100C5000FFFFFFFFFFFFFFFFFFFFFFFFFFFFFFFFA4
:100C6000FFFFFFFFFFFFFFFFFFFFFFFFFFFFFFFF94
:100C7000FF0A006022176780008080808080015713
:100C8000672078A0A0A07820025767304840E04055
:100C900048B002556588705070880158688888503F
:100CA00020F820202022176780808000808080012B
:100CB00058687080E09048380870193161A0025778
:100CC000677088A8C8A888701346667090B05000F6
:100CD000F00265652448904824144262F0101541E2
:100CE00061F00257677088E8C8C88870095161F8D8
:100CF00016336340A0400256662020F82020F815E5
:100D0000456560902040F0154565E0106010E028D2
:100D100022624080015666888888C8B08002576782
:100D200078E8E86828282825116180202262408020
:100D300015356540C04040E0134666609090600005
:100D4000F0026565904824489001696940C04040C0
:100D5000E40C143C0401696940C04040E8140408F4
:100D60001C015969C0204020C8182878080257671C
:100D7000200020204088700258684020708888F841
:100D800088880258681020708888F8888802586817
:100D90002050708888F8888802586848B070888821
:100DA000F888880258685000708888F88888025847
:100DB000682050708888F888880267673C50909C4B
:100DC000F0909C0059697088808080887020400273
:100DD000586840F88080F08080F802586810F880E9
:100DE00080F08080F802586820F88080F08080F8D9
:100DF00002586850F88080F08080F812386880408F
:100E0000E040404040E01238682040E04040404030
:100E1000E012386840A0E040404040E0123868A04E
:100E200000E040404040E0025767F04848E848484A
:100E3000F0025868285088C8A898888802586840E6
:100E40002070888888887002586810207088888888
:100E500088700258682050708888888870025868A6
:100E60002850708888888870025868500070888878
:100E7000888870025565885020508802576770989E
:100E800098A8C8C8700258684020888888888870E8
:100E90000258681020888888888870025868205016
:100EA00000888888887002586850008888888888F8
:100EB00070025868102088885020202002576780D0
:100EC000F088F0808080025767708890A09088B08A
:100ED000025868402000700878887802586810200E
:100EE0000070087888780258682050007008788868
:100EF0007802586828500070087888780257675040
:100F00000070087888780258682050207008788827
:100F10007802656578147C907C00576770888088BB
:100F20007020400258684020007088F88070025895
:100F3000681020007088F880700258682050007097
:100F400088F8807002576750007088F880701238F7
:100F500068804000C0404040E0123868408000C0D7
:100F6000404040E012386840A000C0404040E012DD
:100F70003767A000C0404040E0025767C03070882B
:100F8000888870025868285000B0C888888802583D
:100F900068402000708888887002586810200070AF
:100FA000888888700258682050007088888870028D
:100FB0005868285000708888887002576750007001
:100FC000888888700355652000F8002002556578F0
:100FD00098A8C8F00258684020008888889868025D
:100FE0005868102000888888986802586820500047
:100FF00088888898680257675000888888986800B1
:10100000596910208888986808887000586880F0AE
:10101000888888F08080005969500088889868081E
:101020008870FFE0FFD1AFFF32FFD0FFFEFFE0FF8F
:10103000D1AEFFD0FFFEFFE0FFD11000FFFEFFD0DA
:10104000FFE0FFC1FFD1AED580A83FD300408D1493
:101050002000A1C8DA1281CFD9F1DB402EA4A6AFBF
:10106000FFD0FFFE00000000240027002A0000003F
:101070000000250028002B000000000023002600AF
:10108000290004040404040404040202020202020B
:10109000030303030303010204081020408001023C
:1010A00004081020010204081020000000080002BB
:1010B0000100000304070000000000000000061FFC
:1010C00011241FBECFEFD8E0DEBFCDBF12E0A0E0FD
:1010D000B1E0EAE7F5E402C005900D92A234B10751
:1010E000D9F728E0A2E4B2E001C01D92A531B20711
:1010F000E1F718E0C0E6D8E004C02197FE010E94A5
:10110000D91FCF35D107C9F70E9420190C94BB22F3
:101110000C9400002EE93FE0009729F0F901319787
:10112000F1F70197F9CF089510927905109278059B
:101130000895809383051092B90084FF02C08CE06B
:1011400001C088E48093B8000C949408DB011496E5
:10115000ED91FC91159720E030E065E00994CF9285
:10116000DF92EF92FF920F931F93CF93DF938C0147
:101170007B016A0180E0F601C49181110BC0CF3F71
:1011800009F457C04C2FB701C8010E94A60881116D
:101190004EC054C0CF3F11F44FEFF5CFCE3F09F40E
:1011A0004FC0C03F08F043C0C03E58F04C2F4F70B6
:1011B000D7011496ED91FC91159720E030E062E0A4
:1011C0000CC0C03D68F04C2F4F70D7011496ED91C4
:1011D000FC91159720E030E063E0C801099527C035
:1011E000C03CF8F0D7011496ED91FC91159720E0E2
:1011F00030E040E064E0C8010995C295C07FCE5F51
:10120000D0E0CE010E948A08D7011496ED91FC919E
:10121000159720E030E041E064E0C8010995CE0177
:1012200004C0C7FD04C08C2F90E00E948A0880E0B3
:1012300001C081E0BFEFCB1ADB0A9DCF80E001C087
:1012400081E0DF91CF911F910F91FF90EF90DF90A0
:10125000CF90089510924202EDE0F3E080E090E03C
:10126000DC01A355BA4F17961C921E921697DC010B
:10127000AC56BA4F17961C921E9216971192029670
:101280008E30910569F70895AF92BF92CF92DF92A9
:10129000EF92FF920F931F93CF93DF936C018B011B
:1012A000F42EE90180E1481709F457C08417A8F02B
:1012B000AAE04A135CC0DB011496ED91FC911597EE
:1012C00020E030E042E061E0C60109954EE350E1E4
:1012D000B801C6010E94AF084AC0B1E14B1709F43A
:1012E0003FC0E5E14E1343C0FB01A280B38046E35B
:1012F00050E1C6010E94AF08D50118964C91406B91
:10130000B801C6010E94A608D8011496ED91FC917F
:10131000159720E030E041E062E0C6010995F50153
:1013200023853485D8011496ED91FC911597D5014C
:1013300019964C9166E0C6010995811102C080E0C2
:10134000E5C0D8011496ED91FC91159720E030E0AE
:1013500040E063E0C60109950AC04DE250E102C0D9
:1013600042E250E1B801C6010E94AF08CEC0F801C8
:1013700002811381F2E3FF1609F488C0FF15B8F06B
:1013800085E1F81609F48FC0A7E1FA1609F4A1C0A7
:10139000B4E1FB12BAC0D8011B96ED91FC911C97E9
:1013A00019968D919C911A978E0F9F1F74C0E6E439
:1013B000FE1609F49FC0F7E4FF1609F4A1C08BE301
:1013C000F812A3C08A819B812D81213029F023301E
:1013D00039F4BC01089705C0BC01685F7F4F01C0AC
:1013E000BC0131E0D80116964D915C9117974817D2
:1013F000590708F430E041E0D8011496ED91FC91D2
:1014000015976E177F0708F440E051E068177907D9
:1014100008F050E0832F852B482319F4352309F475
:1014200074C0BC80213079F040F0223081F023304C
:10143000A1F4CC24CA94DC2C12C0C12CD12CEE24F3
:10144000E394F12C0EC0CC24C394D12C08C0C12C41
:10145000D12CEE24EA94FE2C04C0C12CD12CE12C1A
:10146000F12CB7FE04C0BE01C8010E94E2118881C0
:1014700099818E0D9F1D998388838A819B818C0D14
:101480009D1D9B838A83BB0C61F73FC0BE01C801D1
:101490000E94E2113AC01192E817F907E1F7C8017A
:1014A0000E94211232C0C8010E940112882309F44F
:1014B00046CFD8011B96ED91FC911C9719968D9102
:1014C0009C911A978E0F9F1F1192E817F907E1F769
:1014D0001CC019821882F801848195819B838A83BC
:1014E0008185928501979D838C83868197819F83D7
:1014F0008E830BC0D80119968D919C911A9703C0C9
:10150000F801828193819983888381E0DF91CF9173
:101510001F910F91FF90EF90DF90CF90BF90AF9011
:1015200008950F931F93CF93DF93EC01FE01019079
:101530000020E9F732978081803211F41082F6CFD3
:101540008E010F5F1F4F8881803229F4B801CE01D0
:101550000E944022F8CF66EF71E0CE010E94562231
:1015600023E0CC31D20769F4D093AE05C093AD052A
:101570001092B0051092AF051092B2051092B1050D
:1015800035C0009719F1FC011082F3E0C43EDF077B
:1015900019F023E030E002C021E030E0220F331FD9
:1015A000F901E355FA4FD183C083C45ED34019F0EB
:1015B00024E030E002C022E030E0220F331FF901C6
:1015C000E355FA4F03969183808310C083E0C43EB5
:1015D000D80719F083E090E002C081E090E0880F26
:1015E000991FFC01E355FA4FD183C083DF91CF915E
:1015F0001F910F910895AF92BF92CF92DF92EF9219
:10160000FF920F931F93CF93DF931F92CDB7DEB757
:10161000DC01A95BBF4F0D911C915C0135E4A30E69
:10162000B11CD501CD90DC907C01B4E0EB0EF11C37
:10163000DC015D96ED91FC915E97C7016983099588
:10164000AC01400F511F2981B601C7010E949B14B4
:10165000F50120813181280F311D87FD3A953183B5
:10166000208381E090E00F90DF91CF911F910F9147
:10167000FF90EF90DF90CF90BF90AF900895FC0166
:10168000E60FF11D849190E0982F88273196E49120
:101690008E0F911D089590917905911104C080934A
:1016A00079056093780508951F93CF93DF9300D059
:1016B000CDB7DEB720ED37E03A8329839091BC00A7
:1016C000982399F429813A81232B51F48091830541
:1016D000182F127081FD09C081E00E944B0B06C0DB
:1016E00029813A8121503109E7CF11E0812F0F90F4
:1016F0000F90DF91CF911F91089584E98093BC00F2
:1017000064E080E10C94540BCF938093BB0084E899
:101710008093BC0063E080E80E94540BC82F8823AC
:1017200089F080918305C82FC27081FD0AC0809125
:10173000B900887F883229F063E082E00E944B0B79
:1017400001C0C1E08C2FCF910895CF93DF93FC01AE
:1017500021A9222379F0EC010E94BE18811102C058
:1017600080E009C08CA5811180E40E94840B88234D
:10177000B9F319AA81E0DF91CF9108950F931F93D8
:10178000CF93C42F89016330C1F050F4613081F0F0
:10179000623009F048C0FC0144A721E021AB43C0FE
:1017A000663011F1673079F1653009F03CC00EC048
:1017B000FC0184A90E94990836C0FC0114A621E00E
:1017C00021AB411130C00E947D0B2DC00E94A50BA2
:1017D000811104C00E947D0B80E026C08C2F0E94E6
:1017E000840B811120C0F6CF0E94A50B882391F3B2
:1017F000CC23C9F0F80181918F010E94840B8823CA
:1018000049F3C150F5CF0E94A50B882319F3CC23CF
:1018100051F0F80184910E94840B882329F00F5F16
:101820001F4FC150F4CF81E0CF911F910F910895C8
:101830000F931F93FC0101501109040F151F83AD75
:1018400094ADDF01DF960D90BC91A02DA417B507D4
:1018500020F00817190738F403C00817190788F093
:101860000417150770F421503109260F371F81AD79
:1018700092AD45AD56AD4617570728F428173907DE
:1018800028F480E009C02817390728F481E02617DA
:10189000370710F0F6CF81E01F910F9108951F9246
:1018A0000F920FB60F9211242F933F934F935F9394
:1018B0006F937F938F939F93AF93BF93EF93FF9318
:1018C000809179060E94C91020917D0630917E0694
:1018D0002F5F3F4F30937E0620937D0690917C06CC
:1018E000953618F096E090937806909178069430AB
:1018F000C9F128F4923069F09330D1F05EC0953090
:1019000009F451C0963009F058C091E0909349070E
:1019100051C0811152C020917D0630917E0624363F
:10192000310508F442C01092490710927C061CC091
:10193000813009F042C0E0917C0691E09E0F9093C7
:101940007C06F0E020917D0630917E06EE0FFF1FB1
:10195000E858F94F3087278310927E0610927D0653
:1019600094E029C0811117C0E0917C0691E09E0FA0
:1019700090937C06F0E020917D0630917E06EE0F7C
:10198000FF1FE858F94F3087278310927E06109288
:101990007D0693E010C020917D0630917E062536AD
:1019A000310558F007C0811108C010927E061092D0
:1019B0007D0603C095E09093780690917B0699236D
:1019C000B9F081110AC080917A06882321F08091B4
:1019D0007A0661E009C02D9A0BC080917A068823AF
:1019E00031F080917A0660E00E94F21001C02D98DB
:1019F000FF91EF91BF91AF919F918F917F916F91E7
:101A00005F914F913F912F910F900FBE0F901F90BC
:101A10001895CF92DF92EF92FF92CF93DF93EC0174
:101A2000072E000C880B990B0E940A216B017C0188
:101A300020E030E040E45FE30E94BA2120E030E0A3
:101A400048E452E40E9460200E94D220C617D707C3
:101A5000D4F020E030E040EA5FE3C701B6010E9425
:101A6000BA2120E030E048E452E40E94602020E007
:101A700030E040E85FE30E94EF1F0E94D22021E0A7
:101A80006C177D070CF420E0822F90E0DF91CF915E
:101A9000FF90EF90DF90CF90089510924202109245
:101AA000E403EBE0F3E080E090E0DC01A355BA4F03
:101AB00013961C921E921297DC01AC56BA4F1396E5
:101AC0001C921E921297119202968231910569F72B
:101AD00008954F925F926F927F928F929F92AF92F2
:101AE000BF92CF92DF92EF92FF920F931F93CF930B
:101AF000DF93C1E0D0E0CE018C5193402C0100E691
:101B000011E09EE4E92E91E0F92E26E0C22E21E0BC
:101B1000D22E35EBA32E31E0B32E8BED95E00E9453
:101B2000130F8F3F09F46EC1209176053091770530
:101B30008A3019F08D3021F055C12115310569F336
:101B4000F901E255FB4F108210927705109276054D
:101B5000EEEAF4E091919923F1F08EE3890F82305F
:101B6000C8F78081282F2F73C0E49C9FC0011124E7
:101B7000822B8083DF01CD018E5A94402D91222348
:101B800029F0CD010297EC012883F5CFDC01A355A4
:101B9000BB4F1C92DFCF6AEF71E08EEA94E00E94A7
:101BA00056229093AD048093AC04892B19F10E94C6
:101BB0004D0D1093AE050093AD05F092B005E09287
:101BC000AF05D092B205C092B1051092A8050E944F
:101BD000AA16B092B405A092B30587EC95E0909355
:101BE000B6058093B5050E94FB1660E08CE00E946C
:101BF000F21093CF65E072E08EEA94E00E945622E4
:101C00004C019093AD048093AC04892B31F00E9479
:101C10002A09B401695F7F4F53C06DE072E08EEA1C
:101C200094E00E9456224C019093AD048093AC0442
:101C3000892B91F00E942A09B401695F7F4F82E4E9
:101C400092E00E94402282E492E09093B405809357
:101C5000B3050E94FB1661CF65E172E08EEA94E065
:101C60000E9456224C019093AD048093AC04892BC2
:101C700099F00E944D0DF4018781811103C06CE140
:101C800073E003C0B401695F7F4F84EE93E00E946C
:101C9000402284EE93E0A3C06DE172E08EEA94E00E
:101CA0000E9456229093AD048093AC04892B69F076
:101CB00060E08CE00E94F2100E942A096DE172E05F
:101CC00082E492E00E94402288C065E272E08EEADF
:101CD00094E00E9456224C019093AD048093AC0492
:101CE000892B21F10E94AA16FCE08F0E911CB401F1
:101CF00087EC95E00E943722892B09F40ECF8AE009
:101D0000682E712C3FEF631A730AE4016881C301E6
:101D100001970E94AD22F40181914F0181508E3FC5
:101D200088F360E0C3010E94AD22F7CE62E372E067
:101D30008EEA94E00E9456229093AD048093AC0406
:101D4000009779F1BC01685F7F4F8CE193E00E94BE
:101D5000402260E270E08CE193E00E942C224C0172
:101D6000840C951CA4016CE173E088EA95E00E9464
:101D70004722F401E855FA4F1082E8EAF5E00190B5
:101D80000020E9F73197BF01685A7540645E7C4FC7
:101D90008CE193E00E9440228CE193E00E94910A42
:101DA000BCCE6BE372E08EEA94E00E9456229093E0
:101DB000AD048093AC04892B09F4AFCE61E08CE0D4
:101DC0000E94F2106DE172E082E492E00E943722FC
:101DD000892B09F0A2CE1092420282E492E00E9486
:101DE000910A37CF283C310508F097CEA9014F5F03
:101DF0005F4F5093770540937605F901E255FB4F0D
:101E000080838BCEDF91CF911F910F91FF90EF9048
:101E1000DF90CF90BF90AF909F908F907F906F900A
:101E20005F904F900895FC01918D828D981761F01D
:101E3000828DDF01A80FB11D5D968C91928D9F5F01
:101E40009F73928F90E008958FEF9FEF0895FC01AC
:101E5000918D828D981731F0828DE80FF11D858D5F
:101E600090E008958FEF9FEF0895FC01918D228DF2
:101E7000892F90E0805C9F4F821B91098F73992777
:101E800008958BED95E00E94350F21E0892B09F430
:101E900020E0822F0895FC01848DDF01A80FB11D81
:101EA000A35ABF4F2C91848D90E001968F73992790
:101EB000848FA689B7892C93A089B1898C9180647D
:101EC0008C93938D848D981306C00288F389E02D3E
:101ED00080818F7D80830895EF92FF920F931F93EF
:101EE000CF93DF93EC0181E0888F9B8D8C8D9813CD
:101EF00005C0E889F989808185FD24C0F62E0B8D07
:101F000010E00F5F1F4F0F731127E02E8C8DE8122A
:101F10000CC00FB607FCFACFE889F989808185FFEC
:101F2000F5CFCE010E944B0FF1CF8B8DFE01E80F54
:101F3000F11DE35AFF4FF0820B8FEA89FB89808104
:101F4000806207C0EE89FF896083E889F989808112
:101F50008064808381E090E0DF91CF911F910F91A9
:101F6000FF90EF900895CF93DF93EC01888D882345
:101F7000C9F0EA89FB89808185FD05C0A889B989F6
:101F80008C9186FD0FC00FB607FCF5CF808185FFD1
:101F9000F2CFA889B9898C9185FFEDCFCE010E943F
:101FA0004B0FE7CFDF91CF91089580E090E0892B30
:101FB00029F00E94410F81110C9400000895833094
:101FC00081F028F4813099F08230A1F008958730B3
:101FD000A9F08830B9F08430D1F4809180008F7DF1
:101FE00003C0809180008F7780938000089584B52E
:101FF0008F7702C084B58F7D84BD08958091B00035
:102000008F7703C08091B0008F7D8093B0000895DA
:102010003FB7F89480917F0590918005A09181054C
:10202000B091820526B5A89B05C02F3F19F00196F7
:10203000A11DB11D3FBFBA2FA92F982F8827820F4E
:10204000911DA11DB11DBC01CD0142E0660F771F9E
:10205000881F991F4A95D1F708950895DC011B96B2
:10206000ED91FC911C9714968D919C911597481BAE
:10207000590B4770552781E090E001C0880F4A95C1
:10208000EAF7E60FF71F3081222311F0832B02C0FD
:102090008095832380830895FC01848D082E000C95
:1020A000990B0196089580E090E008950B96FC014D
:1020B000849108950A96FC0184910895FC0184910D
:1020C00008950E945E10882321F0823011F083E091
:1020D000089586E0089568E00C943F0B66E00C9448
:1020E0003F0B1F920F920FB60F9211242F933F9325
:1020F0004F935F936F937F938F939F93AF93BF9310
:10210000EF93FF938BED95E00E944B0FFF91EF91C2
:10211000BF91AF919F918F917F916F915F914F91FF
:102120003F912F910F900FBE0F901F9018951F9207
:102130000F920FB60F9211242F938F939F93EF93CB
:10214000FF93E091EB05F091EC058081E091F105C2
:10215000F091F20582FD12C090818091F4058F5FAD
:102160008F732091F505821751F0E091F405F0E0AE
:10217000E552FA4F958F8093F40501C08081FF915D
:10218000EF919F918F912F910F900FBE0F901F9005
:102190001895CF93DF93282F30E0F901E655FF4ED5
:1021A0008491F901EA56FF4ED491F901EE57FF4EA2
:1021B000C491CC2391F081110E94DF0FEC2FF0E04D
:1021C000EE0FFF1FE858FF4EA591B491EC91ED235F
:1021D00081E090E021F480E002C080E090E0DF91B7
:1021E000CF9108951F93CF93DF93282F30E0F9010B
:1021F000E655FF4E8491F901EA56FF4ED491F9015C
:10220000EE57FF4EC491CC23C9F0162F81110E94C6
:10221000DF0FEC2FF0E0EE0FFF1FE259FF4EA5910C
:10222000B4918FB7F894111105C09C91ED2FE095F2
:10223000E92302C0EC91ED2BEC938FBFDF91CF919E
:102240001F910895CF93DF9390E0FC01EA56FF4E73
:102250002491FC01EE57FF4E8491882361F190E0B8
:10226000880F991FFC01EC59FF4EC591D491FC01D8
:10227000E259FF4EA591B491611109C09FB7F8943E
:102280008881209582238883EC912E230BC06230B5
:1022900061F49FB7F8943881822F809583238883D7
:1022A000EC912E2B2C939FBF06C08FB7F894E8813A
:1022B0002E2B28838FBFDF91CF9108958F929F920D
:1022C000AF92BF92CF92DF92EF92FF926B017C01AF
:1022D0000E9408104B015C01C114D104E104F10417
:1022E000F1F00E940810DC01CB0188199909AA09B4
:1022F000BB09883E9340A105B10570F321E0C21AE5
:10230000D108E108F10888EE880E83E0981EA11C30
:10231000B11CC114D104E104F10419F7DDCFFF9021
:10232000EF90DF90CF90BF90AF909F908F900895E7
:102330001F920F920FB60F9211242F933F938F93FA
:102340009F93AF93BF9380917B0590917C05A09163
:102350007D05B0917E0530917A0523E0230F2D375E
:1023600020F40196A11DB11D05C026E8230F029699
:10237000A11DB11D20937A0580937B0590937C0568
:10238000A0937D05B0937E0580917F059091800597
:10239000A0918105B09182050196A11DB11D809388
:1023A0007F0590938005A0938105B0938205BF912E
:1023B000AF919F918F913F912F910F900FBE0F90F2
:1023C0001F901895FB0142815381DC0114962D91D9
:1023D0003C9115974217530798F016962D913C9112
:1023E00017972417350760F06081718119962D9138
:1023F0003C911A976217730718F426810C942E10DB
:102400000895FC018081918124813581280F391F35
:1024100035832483428153812417350780F4208536
:102420002F5F208726813781820F931F841795079E
:1024300010F0CA0101979783868381E0089580E0B8
:102440000895FC0115821482808191810197978300
:10245000868310860895DB01ED91FC9109942F92FB
:102460003F924F925F926F927F928F929F92AF9224
:10247000BF92CF92DF92EF92FF920F931F93CF9371
:10248000DF9300D01F92CDB7DEB77C018901FB013D
:10249000C280D3804B3309F47AC028F4473111F15C
:1024A0004233F1F104C0463441F0473459F0980109
:1024B000B601C7010E942B12ECC09E012F5F3F4F57
:1024C00046E404C09E012F5F3F4F47E4B601C701B9
:1024D0000E942B1289819A8196958795F8019183A4
:1024E0008083D6C047E1B6010E942B12F80180819B
:1024F0009181969587959183808384819581969526
:10250000879595838483828193819695879593831C
:102510008283868197819695879597838683B8C0B5
:10252000F90180809180880C991CA280B380AA0C4C
:10253000BB1C91828082B382A282980142E3B601E1
:102540000E942B123401FFEF6F1A7F0AF80171828B
:102550006082B382A282980142E3B601C7010E9461
:102560002B12FFEFAF1ABF0AF80171826082B382AB
:10257000A282980142E3B601C7010E942B12F80122
:1025800091828082B382A282980142E37DC0F901E8
:102590009481558188E0212C312C220C331C220C93
:1025A000331C97FF02C0F3E02F2A990F8150A9F73F
:1025B000F80140805180440C551CA280B380AA0CC5
:1025C000BB1C50FF06C03201FFEF6F1A7F0A4501A6
:1025D00005C045012FEF821A920A3201F8013482B8
:1025E00051824082B382A28298014BE3B601C701B7
:1025F0005B830E942B12F801718260829382828237
:102600005B81558398014BE3B601C7015B830E9450
:102610002B12F80124825B81513099F058F052302E
:10262000B9F05330D9F488E0A81AB108E8E08E1A5E
:10263000910814C0F8E04F0E511C28E0620E711C86
:102640000DC088E0A80EB11CE8E08E0E911C06C0FB
:10265000F8E04F1A510828E0621A7108F801518217
:102660004082B382A282558398014BE3B601C70131
:102670005B830E942B12F8017182608293828282B6
:102680005B81558398014BE3B601C7010E942B1271
:1026900081E00F900F900F90DF91CF911F910F91DC
:1026A000FF90EF90DF90CF90BF90AF909F908F9072
:1026B0007F906F905F904F903F902F9008950F9371
:1026C0001F93CF93DF9300D0CDB7DEB78C01FC0111
:1026D000648175819E012F5F3F4F46E40E942B125B
:1026E00089819A81F80191838083648175819E013B
:1026F0002F5F3F4F47E4C8010E942B1289819A81C6
:10270000F801938382836481758120E030E048E49E
:10271000C8010E942B12F80185879801275C3F4F62
:102720006481758147E1C8010E942B120F900F90C0
:10273000DF91CF911F910F9108950F931F93CF9326
:10274000DF93EC010C811D81EFA9F8AD82E00995C2
:1027500020E030E04AE0B801CE010E942B12182F91
:10276000EFA9F8AD83E00995EFA9F8AD80E00995F0
:10277000112329F0CE010E945F1381E001C080E0A7
:10278000DF91CF911F910F910895BF92CF92DF9269
:10279000EF92FF920F931F93CF93DF938C01E62E5E
:1027A000DC011696CD91DC911797CE010E945E1048
:1027B000F82EF801868197810E946110C82EF1E001
:1027C000FF1203C02FE0B22E02C0BB24BA94D8017E
:1027D00016968D919C9117970E945A10F82EF80129
:1027E000868197810E945610D82ED80116968D9119
:1027F0009C9117970E946B10B0E6BE1538F40097B5
:1028000029F0C80FD91F91E6F92E10C0F801868172
:1028100097810E946E10F0E4FE1538F4009729F0BD
:10282000C80FD91F81E4F82E01C06196DE1490F420
:10283000D80154961C92549757961C9257975896C5
:102840001C92589755961C92559756961C9280E06C
:1028500090E067C0DF1460F38C2D90E0FE012491BE
:102860002F3F11F4219658C0FE104DC0D801169686
:102870008D919C9117970E945E109E012F5F3F4F94
:10288000FE01882311F08230E1F48491D80157963B
:102890008C935797F901249158962C935897FE01E1
:1028A0003396E4915496EC935497FE013496E49158
:1028B0005596EC935597FE013596E4915696EC9318
:1028C00020C08491982F9F709250D80156969C9367
:1028D000569782958F7055968C935597F901249150
:1028E000822F8F7058968C93589722952F705796F9
:1028F0002C935797FE013296E491E295EF7054962F
:10290000EC93CE010EC0FE013296E491EB219C01C6
:102910002E0F311DC20FD31FFD1409F489CFF3947C
:102920009DCFDF91CF911F910F91FF90EF90DF909E
:10293000CF90BF9008952F923F924F925F926F92E7
:102940007F928F929F92AF92BF92CF92DF92EF923F
:10295000FF920F931F93CF93DF9300D000D0CDB79A
:10296000DEB79C838B833B017A01622F0E94C513E3
:102970005C01892B09F468C0EB81FC818681978119
:102980000E946110C82EEB81FC81D788F08DF983FD
:10299000EB81FC818589680E711C87FD7A94F98131
:1029A0000F2F10E0EB81FC8186899801280F311DE3
:1029B00087FD3A95E21AF30A2D2D30E0A701B30105
:1029C000CF010E94180C8823D9F185010C0D111D2F
:1029D00057E05D0D56955695569557012B803C80D6
:1029E000F0E22F0E311C452E512C8A2D8E19998123
:1029F000891730F5430168018C2D801B8517D0F4B1
:102A0000F6018491EB81FC816481758191A280A2A1
:102A1000B3A2A2A215A284A391014BE3CF015A83D2
:102A20000E942B12FFEFCF1ADF0A28E0820E911CC2
:102A30005A81E2CF040D151D3FEFA31AB30AD5CF7B
:102A4000EB81FC81848901C080E00F900F900F9092
:102A50000F90DF91CF911F910F91FF90EF90DF903A
:102A6000CF90BF90AF909F908F907F906F905F902E
:102A70004F903F902F900895DF92EF92FF920F9327
:102A80001F93CF93DF937C01EB0100E010E0DD2486
:102A9000DA94CE01801B910B0897D0F06091530718
:102AA000709154071093700700936F07F0927207AC
:102AB000E092710710927407D09273072FE637E007
:102AC0004BE38FE497E00E942B12085F1F4FE1CF8A
:102AD000CE01887FC770DD27209741F127E0C2270C
:102AE00060915307709154079093700780936F071C
:102AF000F0927207E0927107109274072196C770E6
:102B0000DD278FEF01C0880FCA95EAF7809373071E
:102B10002FE637E04BE38FE497E0DF91CF911F91F1
:102B20000F91FF90EF90DF900C942B12DF91CF91DB
:102B30001F910F91FF90EF90DF900895EF92FF9219
:102B40000F931F93CF93DF937C018B01C0E0D0E004
:102B5000B701CE010E943C1521960C171D07C1F745
:102B6000DF91CF911F910F91FF90EF900895EF9219
:102B7000FF920F931F93CF93DF93EC017B018B01A7
:102B80009C0140E050E060E070E08FE497E00E943C
:102B9000180C882351F0B701CE01DF91CF911F911E
:102BA0000F91FF90EF900C949E15DF91CF911F91A4
:102BB0000F91FF90EF900895EF92FF920F931F9364
:102BC000CF93DF93EC017B0101E010E09B01AC01AE
:102BD00060E070E08FE497E00E94180C882351F0C9
:102BE000B701CE01DF91CF911F910F91FF90EF9030
:102BF0000C943C15DF91CF911F910F91FF90EF90B6
:102C000008950E9427220F931F93CF93DF938C0187
:102C1000CBE4D7E0EBADFCAD82E00995EBADFCADCC
:102C200081E0099520E030E044E1B8018FE497E0CD
:102C30000E942B1228E837E047E1B8018FE497E0C3
:102C40000E942B12EBADFCAD80E0DF91CF911F9184
:102C50000F910994AF92BF92CF92DF92EF92FF92C1
:102C60000F931F93CF93DF9300D0CDB7DEB76C01E6
:102C70007B01E0916807F09169078FE497E0498351
:102C80005A830995E80EF91E4981A42E5A81B52E62
:102C900000E010E0F50121915F01222371F0A7010E
:102CA000B6018FE497E00E949B14282F880F330B06
:102CB000C20ED31E020F131FEDCFC8010F900F904D
:102CC000DF91CF911F910F91FF90EF90DF90CF9008
:102CD000BF90AF9008958091550790915607009747
:102CE00009F437C020916A07FC01211107C035960D
:102CF000E491E0936B07FC013C960FC0213039F45E
:102D00003F96E491E0936B07FC01709606C03D96F8
:102D1000E491E0936B07FC013E96E491E0936C072D
:102D200080916B07082E000C990B20916C07821B79
:102D3000910927FD939520916D07203441F0829FE2
:102D4000C001112426E0969587952A95E1F7809396
:102D50006E0708950F931F93CF93DF930AE010E05F
:102D6000C7ECD5E0C8010E94A52289930F5F1F4FD1
:102D700081508E3FB8F31882DF91CF911F910F9150
:102D800008950F931F93CF93E0916107F09162072D
:102D9000309719F08FE497E009950091530710914F
:102DA0005407E0918607F091870782E00995E0914A
:102DB0008607F091870781E0099520E030E045E142
:102DC000B8018FE497E00E942B12C82F882341F0AE
:102DD00028E837E047E1B8018FE497E00E942B1222
:102DE000E0918607F091870780E009958C2FCF91BD
:102DF0001F910F9108954F925F926F927F928F92E1
:102E00009F92AF92BF92CF92DF92EF92FF920F9379
:102E10001F93CF93DF9380919407811107C081E0C6
:102E2000809394078FE497E00E949D13809153074D
:102E3000909154070E940316CC24CA94DC2C77246A
:102E400073942091C3053091C4056091C5057091BC
:102E5000C605C901880F991F880F991F37FF02C047
:102E60002F5F3F4F35952795821B930B05970E9447
:102E7000DC1580914F07909150078435910519F02A
:102E80006CE070E002C069E070E08091C50590914F
:102E9000C60501970E94B7153DEA832E35E0932EB3
:102EA00044E9E42E45E0F42E00E010E00E94690DB4
:102EB0000115110519F41092750713C0709275076A
:102EC0000330110574F08091C3059091C40597FDFE
:102ED00001969595879503979093C2058093C105B8
:102EE00004C0D092C205C092C105F4014191519134
:102EF0004F014115510509F485C00115110509F06F
:102F000067C08091A80581110BC0809194059091B4
:102F10009505480F591F60E070E081E090E070C0B7
:102F200048EA55E060E070E081E090E00E942A16F7
:102F3000A090AD05B090AE05809194059091950557
:102F4000A80EB91E6090A8056620D9F1662D8FE401
:102F500097E00E94C513C0916407DD27C1950CF46A
:102F6000D09588EA482E85E0582EFFEF4F1A5F0A69
:102F7000F2018081882369F090916307C90FD11D08
:102F800097FDDA95682E682F8FE497E00E94C513AD
:102F9000ECCFF0E26F1661F0209164078091660734
:102FA00090E0820F911D27FD9A958C0F9D1F0BC0FD
:102FB000809163079E01280F311D87FD3A95C90155
:102FC00002C080E090E0A50160E070E0029718C0C8
:102FD000F70180819181480F591F8091C30590911D
:102FE000C405089FB001099F700D189F700D112432
:102FF0008091C1059091C205680F791F80E090E033
:103000000E942A160F5F1F4FF2E0EF0EF11C0A30EC
:10301000110509F04BCF0E94C116811112CFDF912B
:10302000CF911F910F91FF90EF90DF90CF90BF90C5
:10303000AF909F908F907F906F905F904F9008958A
:103040000F931F93CF93DF938C01C0E0D0E0F80182
:1030500061918F01662359F08FE497E00E94C513B8
:1030600080916307C80FD11D87FDDA95F0CFCE019F
:10307000DF91CF911F910F910895009769F0FC01A6
:1030800001900020E9F73197AF01481B590BBC01B3
:103090008BED95E00C94F51880E090E00895AF92E8
:1030A000BF92CF92DF92EF92FF920F931F93CF9335
:1030B000DF93FC01C081D181209190053091910571
:1030C000C217D3070CF04AC09E01220F331FE091B4
:1030D0008E05F0918F05E20FF31FA080B180C170C3
:1030E000DD27F1E0CF27209719F404E610E002C0B5
:1030F0000CE91FEF6B017C01B80164547E4FC501E0
:103100000E94090D892B99F4B80168587C4FC501BC
:103110000E94090D892B71F4B8016C5C7A4FC501CE
:103120000E94090D892BE9F023E030E005C021E081
:1031300030E002C022E030E0F6018081918101960A
:10314000821793073CF0F60111821082F70180810B
:103150009181019691838083CE0105C081E090E04A
:1031600002C08FEF9FEFDF91CF911F910F91FF90E2
:10317000EF90DF90CF90BF90AF900895CF9384EA07
:103180008093BC0061E080E80E94540B882359F0D2
:103190008091B900887F883041F0803131F061E062
:1031A00082E00E944B0BC0E01DC088E78093BB000B
:1031B00084E88093BC0062E080E80E94540B88237E
:1031C00091F380918305C82FC27081FD0AC0809160
:1031D000B900887F883129F062E082E00E944B0BC1
:1031E00001C0C1E08C2FCF910895CF92DF92EF9272
:1031F000FF920F931F93CF93DF936C017A018B01A2
:10320000C0E0D0E0CE15DF0589F0D8016D918D01C9
:10321000D601ED91FC910190F081E02DC601099558
:10322000892B11F47E0102C02196ECCFC701DF91FA
:10323000CF911F910F91FF90EF90DF90CF90089565
:10324000CF93DF93CDB7DEB729970FB6F894DEBFE3
:103250000FBECDBF789484B5826084BD84B5816093
:1032600084BD85B5826085BD85B5816085BD809151
:103270006E00816080936E001092810080918100C9
:1032800082608093810080918100816080938100C1
:10329000809180008160809380008091B100846083
:1032A0008093B1008091B00081608093B0008091E4
:1032B0007A00846080937A0080917A0082608093A3
:1032C0007A0080917A00816080937A0080917A0000
:1032D000806880937A001092C100E091EB05F09134
:1032E000EC0512E01083E091E705F091E80510820B
:1032F000E091E905F091EA0584E480831092F305FA
:10330000E091EF05F091F00586E08083E091ED0516
:10331000F091EE05808180618083E091ED05F09170
:10332000EE05808188608083E091ED05F091EE05E7
:10333000808180688083E091ED05F091EE058081C9
:103340008F7D808361E08DE00E94221161E08CE03E
:103350000E94221160E088E00E94221161E088E072
:103360000E94F21060E08CE00E94F210F89410933A
:10337000B0001093B10084E68093B3001092B200C5
:103380001093700078941093780610927C068091C8
:10339000790660E00E942211B3E5CB2EB0E1DB2E6E
:1033A00013E0212E312C0FE2402E02E1502E80E05E
:1033B000682E81E0782E90E6A92E91E0B92E2EE4B9
:1033C000822E21E0922E82E090E00E94A52280933E
:1033D0001603805B803218F088EB809316031091FF
:1033E0001603110F80919407811107C081E080932B
:1033F00094078FE497E00E949D13609153077091AA
:1034000054071D839E012B5F3F4F4FE08FE497E0F1
:103410000E942B1220914F07309150078091550741
:10342000909156072435310551F4885D9840B1F0EC
:1034300088ED98E0909356078093550709C0885609
:10344000904061F0E8E6F0E0F0935607E09355070E
:103450000E946B16D0926907C092680781E0809342
:103460006A070E946B1680915C07803331F48FEFFE
:1034700080937507809376070BC0883221F08230E5
:1034800021F081E003C08FEF01C083E080937507D6
:103490002CE430E1309369072093680780916E0730
:1034A000082E000C990B9093C4058093C30580915E
:1034B00051079091520790931503809314038091C4
:1034C0004F07909150079093C6058093C5051092C1
:1034D000C2051092C1050E944D0D00E010E08091E0
:1034E0009407811107C031E0309394078FE497E08F
:1034F0000E949D1380915307909154070E940316D8
:103500008091510790915207B1010E94BA1FE0903B
:103510004F07F0905007F694E79484E791E06887AE
:1035200079870E9420189695879544E751E0688531
:103530007985D701A81BB90BCD010E942A160E94DC
:10354000C1168111DDCF64EF71E080E090E00E9450
:103550005E11809153079091540700FF11C0B1E0B4
:1035600080309B0741F09093030180930201709299
:1035700054076092530750920101409200010BC022
:103580008050914061F480910201909103019093E9
:103590005407809353078FE497E00E945F130F5FF7
:1035A0001F4F0530110509F09ACFB092AE05A092D9
:1035B000AD059092B0058092AF051092A8050E94CB
:1035C000AA1685EB91E09093B4058093B30587EC40
:1035D00095E09093B6058093B5050E94FB1660EDCB
:1035E00077E080E090E00E945E1188E00E94C910C0
:1035F000892BF9F4809116038F5F80931603803D29
:1036000018F080EB809316036091160382E090E03F
:103610000E94AD228091160340E162E472E090E0E6
:103620000E94702282E492E09093B2058093B105EB
:10363000CACE86E091E09093B2058093B1050E94D6
:10364000FB160E94690D20911A0330911B03C901DA
:10365000019690931B0380931A038091C505909166
:10366000C6058435910519F080E099E002C080E03C
:1036700095E02817390709F0C7C22FE736E03093E5
:103680008F0520938E0520917C0630E030939105C4
:10369000209390058091490790E090939305809343
:1036A000920580917806853009F035C280918106B7
:1036B00090918206885891098D35910588F4809102
:1036C0007C06843041F48091830690918406809733
:1036D000479708F4B5C280917C06843408F097C2FD
:1036E00080917C068A3108F454C080917F069091C5
:1036F0008006843F914090F410928D0510928C05C5
:103700008FEF9FEFDC018093880590938905A0934C
:103710008A05B0938B058BE090E040C180918106D3
:103720009091820685974B97A0F5E5E8F6E082E058
:1037300090E0C12CD12C7601BC016F5F7F4F40918E
:103740007C0650E0641775075CF4DF0112974D9119
:103750005C91475051094730510508F4B9C2CB017B
:1037600001979595879590938D0580938C050C977F
:103770002CF410928D0510928C050BC0C092880518
:10378000D0928905E0928A05F0928B0584E090E062
:1037900005C11C821B82232B09F44FC082E090E0FC
:1037A0009A838983809181069091820689974E97AA
:1037B00008F043C083E090E09A8389838091830678
:1037C000909184060B970A97C0F5BE016D5F7F4FFD
:1037D000CE0101960E944F18892B79F5BE016D5FCD
:1037E0007F4FCE0101960E944F18019731F5812C31
:1037F000912C540100E010E029813A8180919005DC
:1038000090919105281739070CF0B1C2BE016D5F88
:103810007F4FCE0101960E944F187C0103301105A5
:1038200009F073C2BE016D5F7F4FCE0101960E9409
:103830004F18E816F90609F468C280917C068933AE
:1038400060F100918E0510918F05F80182819381BE
:10385000895791098335910508F498C21EC0F90172
:1038600062817381665171096131710508F0BDC2D1
:10387000880F991FAA1FBB1F81604E5F5F4F2C5F8F
:103880003F4F4B33510509F490C2F90160817181BA
:103890006A5071096930710510F3209190053091DB
:1038A00091053F832E83263031050CF42FC1009102
:1038B0008E0510918F050A5F1F4F43E0242E312C97
:1038C00055ECC52E5DE9D52E5CE1E52E51E8F52ECF
:1038D000D8016D917C91F8013497A080B18080E08F
:1038E00090E00E9408212B013C01B50180E090E0AE
:1038F0000E9408214B015C012DEC3CEC4CE45FE3A1
:103900000E94BA219B01AC01C301B2010E945B205D
:1039100087FD17C02DEC3CEC4CE45FE3C301B20122
:103920000E94BA219B01AC01C501B4010E945B2039
:10393000E82F880FFF0BEE27FF0FEE1FFF273196B2
:1039400002C0E0E0F0E0A701960163E971E080E0E9
:1039500091E00E94AA1F6F01FF0FEE08FF08C62624
:10396000D726E826F926BFEF2B1A3B0A0E5F1F4F1A
:10397000EE81FF812E163F0609F0AACFC09288057E
:10398000D0928905E0928A05F0928B0520E230E022
:1039900030938D0520938C058FEF9FEF90938505D5
:1039A000809384058091880590918905A0918A056E
:1039B000B0918B05873538EA93073FEFA307B10530
:1039C00009F48FC0B8F58D3AE2E59E07EFEFAE0738
:1039D000B10509F48FC0B8F48D3D22E292072FEFB4
:1039E000A207B10509F465C08D3B32E493073FEFB0
:1039F000A307B10509F47BC08D3F9240AF4FB105DD
:103A000009F07CC059C08739E8E69E07EFEFAE07A2
:103A1000B10509F469C08736F8E99F07FFEFAF07E2
:103A2000B10509F461C08D399246AF4FB10509F077
:103A300065C03CC0873B38E493073FEEA30730E105
:103A4000B307A1F1B0F48D33E2EC9E07EFEFAE07C0
:103A5000B10509F443C0873DF8E29F07FFEEAF07C9
:103A6000F0E1BF07D9F18F34904BAF4FB105E1F1D1
:103A700045C0873538EA93073FEEA30730E1B30727
:103A8000C1F030F487389847AF4EB041A9F036C046
:103A90008733F8EC9F07FFEEAF07F0E1BF0709F1AE
:103AA0008731984EAF4EB04111F128C089EB91E0BB
:103AB00023C083EC91E020C080911703882319F084
:103AC0008DEC91E002C088ED91E00E943D1890914C
:103AD000170381E089278093170310C082EE91E0DD
:103AE0000BC08CEE91E008C08AEE91E005C088ED35
:103AF00091E002C08DEC91E00E943D1862E070E020
:103B000080E090E00E945E110E94690D82E0809347
:103B1000780610927C0610921B0310921A03809173
:103B20001803909119030196909319038093180339
:103B30006AE070E00E94BA1F892B21F461E08DE0F9
:103B40000E94F2108AE0E82E83E0F82E04E915E0E6
:103B50009DEA892E95E0992EC12CD12C26E0722E5B
:103B6000D7018C9118164CF4843019F4F8011182A5
:103B700010828150D7018C9331C0C114D104A1F4BB
:103B800088EA95E00E9420185C012091AD053091F3
:103B9000AE058091940590919505820F931F0E9428
:103BA00020188A0D9B1D0AC0F40120813181D801A3
:103BB0008D919C91820F931F0E9420182091C50522
:103BC0003091C6052817390738F4F80180819181B2
:103BD00001969183808302C0D7017C92BFEFCB1AFC
:103BE000DB0AEFEFEE1AFE0A0E5F1F4FF2E08F0EB8
:103BF000911C2AE0C216D10409F0B2CF0E94FB1634
:103C000060E08DE00E94F2100E94D50F1ACD8091E5
:103C1000830690918406825491098E9708F060CDB6
:103C200080E090E0C12CD12C7601FC01EB57F94FDC
:103C3000408151814950510949305105C8F050CD5A
:103C400080918506909186060997099708F043CDE3
:103C500010928D0510928C058FEF9FEFDC01809301
:103C6000880590938905A0938A05B0938B05CBC0F6
:103C7000FC01E957F94F40815181475151094231C7
:103C80005105C8F4CC0CDD1CEE1CFF1C6894C0F878
:103C900004968038910549F680E290E090938D0576
:103CA00080938C05C0928805D0928905E0928A05A0
:103CB000F0928B05A8C04081518146505109473090
:103CC000510508F00DCDCC0CDD1CEE1CFF1CE0CF27
:103CD00040815181435151094F30510548F4CC0C7A
:103CE000DD1CEE1CFF1C6894C0F80296349624CDAF
:103CF000408151814A5051094930510508F049CD60
:103D0000CC0CDD1CEE1CFF1CF0CFBE016D5F7F4FA5
:103D1000CE0101960E944F186C010330110559F431
:103D2000BE016D5F7F4FCE0101960E944F18C816ED
:103D3000D90609F082CDE114F10459F4CA94CD28D2
:103D400009F07BCD880C991CAA1CBB1C689480F8D8
:103D50000BC0EA94EF2809F070CDCD2809F06DCDA5
:103D6000880C991CAA1CBB1C0F5F1F4F45CD1093DC
:103D70008D0500938C058092880590928905A0920C
:103D80008A05B0928B0582E090E008CE848195810F
:103D9000CA97899708F081CD98012A5F3F4F80E04C
:103DA00090E0DC0143E050E070CDF801EA58FF4FAD
:103DB000208131812A5031092930310508F06DCD3B
:103DC0002CE130E030938D0520938C05809388059D
:103DD00090938905A0938A05B0938B052AE030E083
:103DE0003093850520938405DDCDF90162817381CF
:103DF000665071096730710508F04FCD880F991F23
:103E0000AA1FBB1F3ACD83E090E0C8CD1092DE051B
:103E10001092DD0588EE93E0A0E0B0E08093DF052E
:103E20009093E005A093E105B093E20589E991E064
:103E30009093DC058093DB0585EC90E09093E8059A
:103E40008093E70584EC90E09093EA058093E90580
:103E500080EC90E09093EC058093EB0581EC90E092
:103E60009093EE058093ED0582EC90E09093F00541
:103E70008093EF0586EC90E09093F2058093F10536
:103E80001092F4051092F5051092F6051092F705C0
:103E900010924E0710924D0789EA91E090934C07DB
:103EA00080934B07109291071092900710929307FE
:103EB000109292071092940710925607109255078D
:103EC000109258071092570710925A0781E080937A
:103ED000590782E280935B07109262071092610794
:103EE000E8E7F7E09FEF8EE08E0F91938E13FDCF02
:103EF00081E08093750723E530E1309369072093D3
:103F0000680780936A0710926B0710926C0780E431
:103F100080936D0710926E078DE290E19093870772
:103F20008093860789E891E0909354078093530724
:103F3000109283078FE497E00E949D1381EB91E03C
:103F400090934C0780934B078BE0809379061092F7
:103F50007B060895DB018F939F930E94CE1FBF9134
:103F6000AF91A29F800D911DA39F900DB29F900DC8
:103F700011240895AA1BBB1B51E107C0AA1FBB1F38
:103F8000A617B70710F0A61BB70B881F991F5A95E5
:103F9000A9F780959095BC01CD0108950E94DF1F7F
:103FA000A59F900DB49F900DA49F800D911D11248D
:103FB0000895EE0FFF1F0590F491E02D0994A29F44
:103FC000B001B39FC001A39F700D811D1124911DED
:103FD000B29F700D811D1124911D08955058BB276B
:103FE000AA270E9406200C9480210E94722138F09A
:103FF0000E94792120F039F49F3F19F426F40C94A3
:104000006F210EF4E095E7FB0C946921E92F0E94E3
:10401000912158F3BA17620773078407950720F0B8
:1040200079F4A6F50C94B3210EF4E0950B2EBA2F7B
:10403000A02D0B01B90190010C01CA01A0011124AE
:10404000FF27591B99F0593F50F4503E68F11A165A
:10405000F040A22F232F342F4427585FF3CF4695EB
:1040600037952795A795F0405395C9F77EF41F160D
:10407000BA0B620B730B840BBAF09150A1F0FF0FD7
:10408000BB1F661F771F881FC2F70EC0BA0F621FC3
:10409000731F841F48F4879577956795B795F795B3
:1040A0009E3F08F0B0CF9395880F08F09927EE0F48
:1040B0009795879508950E94452108F481E0089519
:1040C0000E9474200C9480210E94792158F00E9453
:1040D000722140F029F45F3F29F00C9469215111BD
:1040E0000C94B4210C946F210E94912168F39923C0
:1040F000B1F3552391F3951B550BBB27AA276217E4
:104100007307840738F09F5F5F4F220F331F441FF0
:10411000AA1FA9F335D00E2E3AF0E0E832D0915024
:104120005040E695001CCAF72BD0FE2F29D0660F11
:10413000771F881FBB1F261737074807AB07B0E854
:1041400009F0BB0B802DBF01FF2793585F4F3AF05A
:104150009E3F510578F00C9469210C94B4215F3F87
:10416000E4F3983ED4F3869577956795B795F795E0
:104170009F5FC9F7880F911D9695879597F90895C8
:10418000E1E0660F771F881FBB1F62177307840764
:10419000BA0720F0621B730B840BBA0BEE1F88F773
:1041A000E09508950E94D9206894B1110C94B4212F
:1041B00008950E94992188F09F5798F0B92F992768
:1041C000B751B0F0E1F0660F771F881F991F1AF002
:1041D000BA95C9F714C0B13091F00E94B321B1E093
:1041E00008950C94B321672F782F8827B85F39F092
:1041F000B93FCCF3869577956795B395D9F73EF49B
:1042000090958095709561957F4F8F4F9F4F089542
:10421000E89409C097FB3EF4909580957095619560
:104220007F4F8F4F9F4F9923A9F0F92F96E9BB2716
:104230009395F695879577956795B795F111F8CF92
:10424000FAF4BB0F11F460FF1BC06F5F7F4F8F4FFD
:104250009F4F16C0882311F096E911C0772321F0F3
:104260009EE8872F762F05C0662371F096E8862F8B
:1042700070E060E02AF09A95660F771F881FDAF7E2
:10428000880F9695879597F90895990F0008550F0F
:10429000AA0BE0E8FEEF16161706E807F907C0F0CC
:1042A00012161306E407F50798F0621B730B840BD4
:1042B000950B39F40A2661F0232B242B252B21F4AE
:1042C00008950A2609F4A140A6958FEF811D811D4E
:1042D000089597F99F6780E870E060E008959FEF88
:1042E00080EC089500240A9416161706180609068D
:1042F000089500240A94121613061406050608955C
:10430000092E0394000C11F4882352F0BB0F40F4E3
:10431000BF2B11F460FF04C06F5F7F4F8F4F9F4F23
:10432000089557FD9058440F551F59F05F3F71F0A5
:104330004795880F97FB991F61F09F3F79F087950C
:104340000895121613061406551FF2CF4695F1DF95
:1043500008C0161617061806991FF1CF8695710525
:10436000610508940895E894BB2766277727CB0159
:1043700097F908950E94CD210C9480210E9472210A
:1043800038F00E94792120F0952311F00C946921D6
:104390000C946F2111240C94B4210E94912170F38C
:1043A000959FC1F3950F50E0551F629FF001729FDA
:1043B000BB27F00DB11D639FAA27F00DB11DAA1FE9
:1043C000649F6627B00DA11D661F829F2227B00D36
:1043D000A11D621F739FB00DA11D621F839FA00DC1
:1043E000611D221F749F3327A00D611D231F849F11
:1043F000600D211D822F762F6A2F11249F57504068
:104400009AF0F1F088234AF0EE0FFF1FBB1F661FE2
:10441000771F881F91505040A9F79E3F510580F0AB
:104420000C9469210C94B4215F3FE4F3983ED4F3DB
:10443000869577956795B795F795E7959F5FC1F74F
:10444000FE2B880F911D9695879597F9089581E029
:1044500090E0F8940C94BB22FC018191861721F026
:104460008823D9F7992708953197CF010895FB0143
:10447000DC018D91019080190110D9F3990B0895F9
:10448000FB01DC0101900D920020E1F70895FB0192
:10449000DC014150504048F001900D920020C9F7D6
:1044A00001C01D9241505040E0F70895FB01519129
:1044B0005523A9F0BF01DC014D9145174111E1F7EA
:1044C00059F4CD010190002049F04D914015411162
:1044D000C9F3FB014111EFCF81E090E0019708950E
:1044E000BB274A3031F4992322F4BDE2909581959F
:1044F0009F4F0C947C22BB27FB015527AA27880FCE
:10450000991FAA1FA41710F0A41B83955051B9F747
:10451000A05DAA3308F0A95DA193009779F7B111C6
:10452000B1931192CB010C949522DC01FC01672F11
:1045300071917723E1F7329704C07C916D9370837A
:104540006291AE17BF07C8F30895F999FECF92BDE7
:1045500081BDF89A992780B50895262FF999FECF45
:104560001FBA92BD81BD20BD0FB6F894FA9AF99A90
:0A4570000FBE01960895F894FFCFE6
:10457A002F120000000068747470733A2F2F68615C
:10458A00636B616461792E696F2F70726F6A6563FC
:10459A00742F31313537302D776966692D77656229
:1045AA00726164696F2D776974682D65737038322A
:1045BA0036362D616E642D767331303533003D3DCC
:1045CA0020286329204B61726157696E203D3D00A6
:1045DA004B61726164696F2049522B6C6364205687
:1045EA00312E34004B61726164696F00080040002B
:1045FA0000000000008000950744097C01BE0B0002
:10460A000015088000000000006C0FF518350F1324
:10461A000F270FB30F00000000FB0AF51800000077
:10462A0000FB0AF51849503A00636C692E6E6578EA
:10463A00740D00636C692E766F6C2D0D00636C69C6
:10464A002E73746172740D00636C692E73746F70CB
:10465A000D00636C692E766F6C2B0D00636C692EEE
:10466A00707265760D00202D200056532056657213
:10467A0073696F6E004D455441233A2000494359EE
:10468A0034233A200049435930233A200053544FE7
:10469A00505045440053746174696F6E2049703AF2
:1046AA0020004D45534554233A200059494E47238B
:0246BA000000FE
:00000001FF
